:020000040800F2
:10000000002000209D480008094800080B4800080F
:1000100000000000000000000000000000000000E0
:100020000000000000000000000000000D48000873
:1000300000000000000000000F4800081148000800
:10004000ED48000800000000ED480008ED480008F9
:10005000ED480008ED480008ED480008ED480008AC
:10006000000000001D480008ED480008ED480008A9
:10007000ED480008ED480008ED48000800000000C9
:10008000ED480008ED48000800000000ED480008B9
:10009000ED480008ED4800082D480008ED4800082C
:1000A000ED480008ED480008ED480008ED4800085C
:1000B000ED48000800000000000000000000000003
:1000C00010B5064C2378002B07D1054B002B02D02E
:1000D000044800E000BF0123237010BD5000002041
:1000E0000000000038490008044B10B5002B03D075
:1000F0000349044800E000BF10BDC04600000000F6
:100100005400002038490008002243088B4274D371
:1001100003098B425FD3030A8B4244D3030B8B4208
:1001200028D3030C8B420DD3FF22090212BA030C11
:100130008B4202D31212090265D0030B8B4219D3F2
:1001400000E0090AC30B8B4201D3CB03C01A524112
:10015000830B8B4201D38B03C01A5241430B8B425A
:1001600001D34B03C01A5241030B8B4201D30B0343
:10017000C01A5241C30A8B4201D3CB02C01A52416A
:10018000830A8B4201D38B02C01A5241430A8B422D
:1001900001D34B02C01A5241030A8B4201D30B0216
:1001A000C01A5241CDD2C3098B4201D3CB01C01A30
:1001B000524183098B4201D38B01C01A524143093A
:1001C0008B4201D34B01C01A524103098B4201D328
:1001D0000B01C01A5241C3088B4201D3CB00C01A95
:1001E000524183088B4201D38B00C01A524143080D
:1001F0008B4201D34B00C01A5241411A00D2014632
:10020000524110467047FFE701B5002000F0F0F8BA
:1002100002BDC0460029F7D076E7704703460B437E
:100220007FD4002243088B4274D303098B425FD3EF
:10023000030A8B4244D3030B8B4228D3030C8B421B
:100240000DD3FF22090212BA030C8B4202D3121201
:10025000090265D0030B8B4219D300E0090AC30BD6
:100260008B4201D3CB03C01A5241830B8B4201D383
:100270008B03C01A5241430B8B4201D34B03C01A6C
:100280005241030B8B4201D30B03C01A5241C30AE4
:100290008B4201D3CB02C01A5241830A8B4201D355
:1002A0008B02C01A5241430A8B4201D34B02C01A3F
:1002B0005241030A8B4201D30B02C01A5241CDD2E4
:1002C000C3098B4201D3CB01C01A524183098B422F
:1002D00001D38B01C01A524143098B4201D34B0118
:1002E000C01A524103098B4201D30B01C01A52417B
:1002F000C3088B4201D3CB00C01A524183088B4202
:1003000001D38B00C01A524143088B4201D34B00EA
:10031000C01A5241411A00D201465241104670475C
:100320005DE0CA0F00D04942031000D34042534061
:1003300000229C4603098B422DD3030A8B4212D321
:10034000FC22890112BA030A8B420CD38901921153
:100350008B4208D3890192118B4204D389013AD090
:10036000921100E08909C3098B4201D3CB01C01A65
:10037000524183098B4201D38B01C01A5241430978
:100380008B4201D34B01C01A524103098B4201D366
:100390000B01C01A5241C3088B4201D3CB00C01AD3
:1003A000524183088B4201D38B00C01A5241D9D2EB
:1003B00043088B4201D34B00C01A5241411A00D26C
:1003C0000146634652415B10104601D34042002B68
:1003D00000D54942704763465B1000D3404201B5E7
:1003E000002000F005F802BD0029F8D016E770479C
:1003F0007047C0468446101C62468C46191C6346F2
:1004000000E0C0461FB501F047F8002801D40021E4
:10041000C8421FBD10B500F0A1FF4042013010BD21
:1004200010B501F039F8002801DB002010BD0120D3
:1004300010BDC04610B501F02FF8002801DD0020E6
:1004400010BD012010BDC04610B500F0C1FF00284E
:1004500001DC002010BD012010BDC04610B500F029
:10046000B7FF002801DA002010BD012010BDC046F2
:100470008446081C6146FFE71FB500F099F8002884
:1004800001D40021C8421FBD10B500F02BF8404236
:10049000013010BD10B500F08BF8002801DB002002
:1004A00010BD012010BDC04610B500F081F8002835
:1004B00001DD002010BD012010BDC04610B500F0C8
:1004C00037F8002801DC002010BD012010BDC04617
:1004D00010B500F02DF8002801DA002010BD012031
:1004E00010BDC04670B5420045024E024C00C30F1D
:1004F0006D0A120E760A240EC90F0120FF2A06D0BB
:10050000FF2C03D0A24201D1B54206D070BD002D10
:10051000FCD1FF2CFAD1002EF8D18B4206D001205D
:10052000002AF3D12800451EA841EFE70020EDE79F
:10053000F0B5420045024C02C30F48006D0A120E8E
:10054000640A000EC90FFF2A1ED0FF2821D0002AFE
:100550000AD16E426E41F6B200280FD1002C0DD1A7
:100560000020002D09D005E0002801D1002C01D089
:100570008B4211D0012158420843F0BD002EF7D024
:10058000012001390843F8E7002DDED00220404267
:10059000F3E7002CDBD0F9E78242EBDC04DBA54279
:1005A000E8D80020A542E8D20121581E0843E4E71C
:1005B000F0B542004D024C004602760A120EC30FFF
:1005C0006D0A240EC90FFF2A16D0FF2C18D0002A5E
:1005D0000AD170427041C0B2002C15D0002805D05D
:1005E000012001390843F0BD002C13D0994214D0EA
:1005F00001205B421843F6E70220002EF3D1E4E726
:100600000220002DEFD1E2E7002DE7D10020002EDF
:10061000E9D0EDE7002DE9D1EAE7A24206DCDFDB15
:10062000AE4203D80020AE42DAD3DCE701204942D3
:100630000843D8E770B5002830D0C317C4185C4011
:10064000C50F200001F028FB9E231B1A962B0DDC02
:100650009622D21A94402A006402640ADBB2640231
:10066000DB05600AD2071843104370BD992B19DCD3
:100670009922D21A002A29DD94402200144C1440F9
:10068000510704D00F210A40042A00D0043462012B
:1006900013D4A401640ADBB22A00E0E7002200239D
:1006A0000024DCE705222100121AD140B922D21A17
:1006B0009440621E94410C43DAE7054B2A001C402B
:1006C0009F23A4011B1A640ADBB2C8E72200D5E706
:1006D000FFFFFFFBF8B54546DE4657464E460C0386
:1006E000E0B54E00C90F88460D00610A440F0C4367
:1006F000C70019035800DB0F9B464B0A510F0B43F1
:10070000760D400D1900D200D84500D1AEE0351A63
:10071000002D00DCF6E000280FD1134300D1DBE010
:100720006B1E002B00D037E1BA1A9742BF41641A02
:100730007F42E41B0126170024E0C64B9E424DD0A9
:1007400080231B041943382D00DD07E11F2D00DD38
:1007500038E12020431B9A460B00504683409946BF
:1007600013004846EB401843030050468240501E99
:100770008241E9401A43BA1A611A9742A44117000C
:1007800064420C1B230262D56402650A002D00D16D
:10079000DFE0280001F080FA0300083B1F2B00DD9A
:1007A000D2E020223C00D21A9D40D4409F402543F5
:1007B0009E4200DDC4E09E1B731C1F2B00DDF1E098
:1007C000202238002900D21AD840914097402C00AE
:1007D0000143781E8741DC4000260F437B0709D088
:1007E0000F233B40042B05D03B1DBB42BF417F4242
:1007F000E4191F0023022CD5964B01369E4200D1EE
:100800009AE04546944BFF081C4060077605640259
:100810000743240B760D00212403230B0C0D8F4A74
:1008200024051C431440330523435B00ED075B089C
:100830002B43380019003CBC90469946A246AB4673
:10084000F8BD6446044300D111E2040067467B070B
:10085000C6D145466007FF080743E4087D4B9E422A
:1008600030D024037605240B760DD4E7331A9A464C
:10087000002B78DD002831D076488642AED080202B
:10088000000401435346382B00DCE9E00A43511EC3
:100890008A410021D219BA42BF4109197C4217008E
:1008A0000C192302D3D56B4B01369E4200D13AE19D
:1008B0000120694B1C407B0807401F43E0070743AA
:1008C00064088BE723003B4300D1CBE18022120375
:1008D00014432403240B9EE72E007FE708001043F7
:1008E00000D1B4E0581E002800D0DEE0BA18BA42A9
:1008F0009B4164185B42E418170001262302A6D529
:100900000226D5E7002D6ED1701C4005400D012850
:1009100000DCF9E0B81A844687428041E51A40427B
:100920002D1A280200D489E0D71BBA4292411C1B21
:100930005242A51AD84629E74546002400276AE70F
:10094000454CF61A2C4049E73D00283885400027E1
:100950002EE7380001F0A0F920301DE70A43511EB0
:100960008A41002107E7002B00D0F3E0701C43050B
:100970005B0D012B00DCADE0364B984200D1D1E09D
:10098000BA18BA42BF4164187F42E419E707520817
:1009900017436408060021E72E48854200D193E002
:1009A0001D00D0E629001F3EF140202B00D18DE034
:1009B0004022D31A9D402F437D1EAF4100240F4398
:1009C000002644E72B000800203BD8400300202DE0
:1009D00000D17DE04020451BA9400A43511E8A41B9
:1009E00000211A43C7E6002E50D01A4EB04257D00D
:1009F00080266B429946360434434B46382B00DD43
:100A0000D6E01F2B00DD35E12026F51A2600AE408A
:100A1000B2463E00DE40AC46350056462E436546A3
:100A2000AF407D1EAF41DC403743D71BBA429241F5
:100A30000C1B5242A41A0600D846A3E66446674639
:100A40002C4300D0A2E600250026002706E71E0062
:100A5000C4E6C046FF070000FFFF7FFFFFFF0F80D7
:100A60001F2B63DC2020C31A080098409C46834655
:100A700053461000D84003005846184363469A4036
:100A8000531E9A4153460243D94003E726003E4392
:100A900006D0EB439946002BC7D0944EB042ACD160
:100AA0000C0017000600D84698E6904B9A450BD0EC
:100AB0008246E7E6002800D09EE01800104300D1EF
:100AC000E9E01C001700D846884E87E6002572E74B
:100AD000002182E723003B43002E00D0ABE0002B37
:100AE00000D1E7E00B00134300D177E6BA18BA4211
:100AF000BF4164187F42E419230200D4F2E07C4B2A
:100B000017001C40060069E620003843002ED1D1B2
:100B100000285BD11C00144300D1A8E01C00170082
:100B2000D8465BE606000024002797E650460B00F7
:100B30002038C34099465346202B00D195E04023EE
:100B400050461B1A99400A43511E8A414B460021C8
:100B50001A439FE6002E30D126003E4367D0DB4388
:100B60009A46002B1CD0614EB04260D05346382BC1
:100B700000DD96E01F2B00DD9FE02026F31A260003
:100B80009E409C46B34653463E00DE4033005E46E0
:100B90001E4363469F407B1E9F415346DC403743C4
:100BA000BF189742924164185242A418060078E692
:100BB00027437C1EA741002437E74C4EB04236D075
:100BC00080265B4236049A463443CFE71800104330
:100BD00000D103E6B81A84466745AD41E01A6D427C
:100BE000401B050200D42CE6D71BBA4292411C1BC5
:100BF0005242A41AD846F1E51800104300D163E729
:100C0000F808670707438020E4080003044208D07F
:100C1000DD08054205D1D208590711430F002C0009
:100C2000D8467B0FE4001C43FF00304ED6E50C0095
:100C300017000600D2E5002B38D00B00134300D17B
:100C400042E7F808670707438020E40800030442EE
:100C5000E7D0CB080342E4D1D208490711430F0083
:100C60001C00DEE700270024D5E500216BE7002506
:100C70000027F3E54E462500203EF5404B462E006A
:100C8000202B2DD04025ED1AAC4027437C1EA741D8
:100C900000243743C9E6802400252403134E00278F
:100CA000DCE527437C1EA741002479E70C001700F0
:100CB0000E4E93E50C00170090E556462300203EAB
:100CC000F34099465346202B0ED0402356469B1B9B
:100CD0009C4027437C1EA7414B4600241F435FE7EF
:100CE0000024D2E71700B2E50024F2E7FF07000076
:100CF000FFFF7FFFF0B557464546DE464E46E0B55E
:100D00004C000E0387B0834692461D008046360B8A
:100D1000640DCF0F002C4FD06F4B9C4235D08023F9
:100D2000420F1B04F600134333439946C300984611
:100D30006A4B00269C460023644403932B031B0B41
:100D40009B466B00ED0F50465B0D01955ED0624AED
:100D5000934253D05A46D1008022400F12040243DE
:100D60000A4393465246D1005C4A944600226344AB
:100D70003800684084460290E41A16430F2E00D9CA
:100D8000B4E0574BB6009B599F4603003343994646
:100D90006CD100239846023308260393CEE7CB4656
:100DA0004146039A0197022A65D1019B4A4C9C4611
:100DB0000023002298466BE00300334399464ED04F
:100DC000002E00D1BCE1300000F066FF03000B3BB9
:100DD0001C2B00DDACE11D22D31A5A460100DA407B
:100DE00008398E401300334399465B468B40984642
:100DF00000233C4C0026241A03939FE751465A4691
:100E0000114329D1002293460232B1E759460143EA
:100E10001ED05B46002B00D19EE1584600F03CFFFF
:100E200003000B3B1C2B00DD8FE102005946083A02
:100E300091408B461D21CB1A5146D9400B00594693
:100E40000B4351469B469140264B00221B1A8FE7CD
:100E5000002301229B468BE75146032288E70023AB
:100E60009846013304260024039367E70323B14621
:100E700003930C2662E7032A00D15CE2019B012A5E
:100E800000D0E4E113409C46002300240022984651
:100E900000211203130B0A0D12051A432305124CED
:100EA00040462240134362465B00D2075B0813436F
:100EB000190007B03CBC90469946A246AB46F0BD2F
:100EC000002380229C4612039846034CE0E700234F
:100ED000014C00229846DBE7FF07000001FCFFFF02
:100EE000704900080DFCFFFFFFFF0F80D94500D9B6
:100EF00039E100D134E1002346464D469A46013C93
:100F00005B460A0E1B021A430B02170C03931304D1
:100F10001B0C3900280090460193FFF7F5F80200FA
:100F2000019B83465A43280039009146FFF772F926
:100F3000350C09040D43A9450DD95B464544013BD9
:100F4000A84500D93AE1A94500D837E102235B4220
:100F50009C464544E3444B46EB1A39001800049381
:100F6000FFF7D2F8019B05004343390004989946E6
:100F7000FFF750F9330409041B0C0B43994509D9B9
:100F800043446A1E984500D91AE1994500D817E1F3
:100F9000023D43444A469B1A5A4612042A43039987
:100FA0009346100C0A0C914609045A46090C4E4609
:100FB0000D001204120C45430591514372437043D6
:100FC00052190E0CB218954203D980256D02AC4619
:100FD0006044150C09041204090C281852188342A5
:100FE00000D2CEE000D1C8E01D1A53469E1AB24589
:100FF00092415242AB1A9A46984500D117E1390006
:101000001800FFF781F8019B050043433900504663
:101010000493FFF7FFF804980B04310C194388423E
:1010200009D941446B1E884500D907E1884200D8A0
:1010300004E1023D4144049BCB1A1800390004939B
:10104000FFF762F8019B82464343390004980193FD
:10105000FFF7E0F801980B043104090C19438842AA
:101060000DD953464144013B884500D9E8E0884208
:1010700000D8E5E002235B429C464144E244019BE8
:101080002D04CE1A51462943059D4F462A000B04D4
:10109000080C1B0C5A4345437B4378435B19170CE0
:1010A000FB189D4203D980256D02AC4660441D0C9F
:1010B00012041B04120C28189B18864200D293E0DD
:1010C00000D18EE001231943A04BE318002B00DC74
:1010D00099E04A0700D09EE05A46D20106D55A460A
:1010E0009B4B1A4080239346DB00E318994A9342B6
:1010F00068DD0123029A984C1A40002394469846D2
:101100000022C5E680224B46120313420AD05B46FA
:10111000134206D11A431203120BAC4688468E4C7A
:10112000B6E64B461A431203120BBC468A4CAFE696
:1011300003005A46283B9A4000239146984657E6BA
:10114000584600F0A9FD203040E603005246283BF7
:101150009A400021934677E600F09EFD20305FE63E
:10116000884500D2C7E64B46DE075D0843465B086C
:101170001E434346DB079A46C2E60025924500D34C
:1011800033E7039E5946B446E244B245AD416D4251
:101190004544EB180139984507D2984200D97FE0C1
:1011A00000D1BCE01D1A8B461FE79845FAD1039D7C
:1011B0005545F2D943468B461D1A16E79B46CAE6AB
:1011C0001500E7E65A46C90852070A435B059046F0
:1011D0005C0D5A460123029952021940120B8C46AB
:1011E00056E6002B00D16FE746444A1EB04529D988
:1011F0001100864200D065E7039A934200D061E770
:1012000062E7012149420120C21A382A21DD029BEE
:1012100003409C4638E60F220A40042A00D15BE7CF
:101220000A00111D914292415242934454E7474BA8
:10123000E318002BE5DD01225242F2E71D00FAE639
:101240009A461CE7B04239D86ED011003AE70293B3
:101250003AE71F2A3CDC20239B1A0C005846994091
:1012600098404B1E99415B46D440D34020430843ED
:101270001A00430709D00F230340042B05D00100B7
:10128000081D88429B415B42D21813023AD50123C4
:10129000029A01241A400023944698460022F7E55A
:1012A000022149428C46039DE344AC46E244AA45F0
:1012B000AD416D424544ED182D1A96E68A1E0399FC
:1012C0004D008D42894149424144761803958FE78C
:1012D0001F204042C31A5846D8400300202A28D075
:1012E00040205D46821A954029434A1E9141194388
:1012F000072300220B4009D00F2300220B400800D7
:10130000042BBDD1010053075202120BC908194327
:10131000012388460299002419408C46B8E55245BD
:10132000BED88B46002560E6039D9D42C6D31100C2
:1013300062E70025D8E780225B4612031A43019B2F
:101340001203120B9C468846034CA1E5FF030000E4
:10135000FFFFFFFEFE070000FF070000F0B54F464D
:101360004646D6465C00C0B51F03DB0F9A46174BB6
:101370000E034D0084468046360B6D0DC90F914615
:101380003F0B640D01209D4208D09C4201D0A54234
:101390000BD01CBC90469946A246F0BD6346334331
:1013A000F7D1AC42F5D13A43F3D10120BE42F0D19E
:1013B000C845EED1514507D0002DEAD163461E4302
:1013C0003000461EB041E4E70020E2E7FF070000DE
:1013D000F0B54546DE4657464E46E0B51F033D0B89
:1013E0002C4F0E034C00AB465D008446360B640D5B
:1013F000C90F90466D0DDB0FBC422AD0254FBD4270
:101400002DD0002C0FD1304307008146784278411F
:10141000C0B2002D17D15F463A4314D14B4600208D
:10142000002B0AD006E0002D02D15846024301D01D
:10143000994218D04842012108433CBC9046994645
:10144000A246AB46F0BD0028F2D00120013B184374
:10145000F3E737000743D1D002204042EDE75F4673
:101460001743CED0F8E7AC42E4DC03DA481E012192
:101470000843E2E75E45DDD806D000205E45DCD2B9
:101480000123481E1843D8E7C445D3D80020C445DB
:10149000F6D3D2E7FF070000F0B54E464546DE46DC
:1014A00057465C00E0B51F03DB0F99462A4B0E033D
:1014B0004D00C90F8446360B6D0D8B4690463F0B91
:1014C000640D9D4220D0244B9C4222D0002D12D18D
:1014D000304343424341DBB2002C1FD0002B0CD0E1
:1014E0004B460120013B034318003CBC9046994603
:1014F000A246AB46F0BD002C16D0CB4517D05B46BC
:10150000594201230B43EFE7310002230143EBD1A2
:10151000D9E7390002231143E6D1D7E73A43DDD1B9
:1015200000230028E0D0EAE73A43E6D1E7E7A54206
:10153000E5DC05DBBE42E2D807D00023BE42D3D2B1
:101540005946012301390B43CEE7C445D7D80023C0
:10155000C445F5D3C8E7C046FF070000F0B55746BD
:101560004546DE464E46E0B50C0398464E00230B3A
:1015700087B0070092469B46760DCD0F002E6BD0AC
:101580006D4B9E4235D080245B46420F2404DB0025
:1015900014431C43C3009946684BA3469C46002352
:1015A00000276644029343461C035A00DB0F504653
:1015B000240B520D984600D176E05F4B9A426DD0D5
:1015C0008023410F1B040B435C49E4008C461C4301
:1015D000C300002062444146B6186940721C019164
:1015E000944607430F2F00D9B0E0554ABF00D259A7
:1015F00097465B460343994600D087E000239B460D
:10160000023308270293CEE742460192022867D0B0
:10161000032800D10EE2012800D062E1002300245B
:101620000022994601990140CDB2002112030B0D11
:10163000120B1B051343434A240513401C4364004B
:10164000ED0764082C434846210007B03CBC904697
:101650009946A246AB46F0BD034399464FD05B4640
:10166000002B00D189E1584600F016FB03000B3B2C
:101670001C2B00DD7AE11D22D31A3A0001005C46E2
:10168000DA4008398C4013008F4023439B46B9460B
:1016900000232D4E0027361A029384E75346234336
:1016A0002AD10024022096E75346234320D0002C61
:1016B00000D157E1200000F0EFFA03000B3B1C2B98
:1016C00000DD49E11D21CB1A51460200D9405346A5
:1016D000083A944093400C431B4A121A00207AE7C0
:1016E0000125019B144C1D400023002299469CE7D4
:1016F0000024002201206EE7534603206BE70023FD
:101700009B4601330427002602934CE703238146BE
:101710000C27029347E780220023002512039946F5
:10172000054C82E75C464B4602986FE75C464B46A9
:10173000019502986AE7C046FF07000001FCFFFF21
:10174000B0490008FFFF0F800DFCFFFF4A464946E5
:10175000170C1A0C1B041B0C08041900000C414345
:101760001500884619007D43794303958946290071
:10177000150045434D44029545462D0CAA46029D51
:101780005544A94506D98A46802149028946CA445A
:1017900051460391290C0491414609042D04090C7A
:1017A00088462900250C24044144240C059121007D
:1017B00041438846210079438A4668434146504464
:1017C0008146080C48446F43824503D98021490271
:1017D00089464F44010C89463900494402914146EB
:1017E0000F0404993F0C88460004C0198044414608
:1017F000049159460F0C0904090C884659438A463E
:1018000039005143894641464A435146090C8B46AB
:101810007B43D2185A44934203D980235B029B46F0
:10182000D94451460904090C8A46414661437C4328
:10183000130C12044B445244A1468A463C004146D4
:101840006C434D4351464D440F0C7D19A94503D9B6
:101850008021490288464444049F0399B846414484
:101860008B468345804141428846514608042F04F7
:10187000000C3F1858460299101889469042924130
:101880004F44BA46524299469346C244D144CB444F
:101890008F42BF41C245894199459B419345924141
:1018A0007F4249422D0C52420F435B4213437F1942
:1018B000FF185B463C19DB0D059A64021C4343028A
:1018C00013435D1EAB415A46C00D034352021343FE
:1018D000E20156D501205A0803401343E20713439F
:1018E00064085A48604400284DDD5A0709D00F2289
:1018F0001A40042A05D01A1D9A429B415B42E41803
:101900001300E20104D58020514AC0001440604415
:10191000504A904200DDE3E60125DB0862071A43E6
:101920006402019B9146220B4405640D1D407CE638
:10193000802259461203114208D0144206D1224394
:101940001203120B45469946434C6EE65B461A431A
:101950001203120B404C68E603005446283B9C409F
:101960000023B9E600F098F92030A6E60300283BF2
:101970009F400023BB4699468AE600F08DF920304F
:1019800074E6B446ADE701252A1A382A06DD019B24
:1019900000241D4000230022994646E61F2A21DC30
:1019A00020252000AD1A1E00AB40A840D6405D1E89
:1019B000AB4130431843D440430709D00F230340C1
:1019C000042B05D00300181D98429B415B42E4188C
:1019D000230221D50125019B01241D400023002263
:1019E000994622E61F2521006D42281AC1400800B1
:1019F000202A1DD05F35AA1A944023435C1EA341C0
:101A0000072503431D400022002D09D00F2200248A
:101A10001A401800042AD6D1030065076402220B7D
:101A2000DB082B4301259946019B00241D40FCE562
:101A30000024E2E7802201251203224301991203C8
:101A4000120B0D409946044CEFE5C046FF03000021
:101A5000FFFFFFFEFE070000FF07000070B5002833
:101A600030D0C317C4185C40C50F200000F014F933
:101A7000174B184A1B1AD21A1F2A18DD164AD21AF7
:101A80009440002224035B05240B5B0D0021100011
:101A900024030A0D240B12052243104C1B0522407F
:101AA00013435B00ED075B082B43190070BD210059
:101AB00091400A000B21081AC4405B052403240B43
:101AC0005B0DE3E70025002300240022DEE7C0468B
:101AD0001E0400003304000013040000FFFF0F8009
:101AE0004100090E4B1C70B5DBB24602750AC40FEB
:101AF000012B14DDE0239B006D07360BCB18002172
:101B00000A0D280012051C4D32435B052A405B0874
:101B100013435B00E4075B082343190070BD0029F1
:101B200014D1002D1ED0280000F0B6F80A281CDCC5
:101B30000B232A001B1ADA40030015339D400F4B7C
:101B400012031B1A5B05160B5B0DD8E7002D06D0A0
:101B5000320B802636036D071643094BCFE7084B3F
:101B60000026CCE700230026C9E703002A000B3B30
:101B70009A400025E3E7C046FFFF0F80890300007D
:101B8000FF070000F0B54C00640D0B03621C450F0D
:101B90005B0A52052B43C90FC500520D012A28DDEF
:101BA0003A4AA618FE2E1BDC002E3EDD8001020004
:101BB000501E82416D0F2A43DB0013435A0704D0A5
:101BC0000F221A40042A00D004338022D2041A4083
:101BD0005AD00136FF2E03D09B015B0AF4B201E01C
:101BE000FF2400235802E405400AC90720430843A4
:101BF000F0BD002C07D01D43F2D08020DB00800414
:101C00000343FF26DAE72B4303D00523DB08FF2C31
:101C100003D05B025B0AE4B2E4E7002B32D0802001
:101C2000C00303435B025B0ADCE73200173214DBBC
:101C300080221E2712041343BF1B1F2F0FDC144AE0
:101C4000944664442A00A5402E00A340751EAE4170
:101C5000FA40334313430026B0E70024D5E70222BD
:101C60005242961B1A00F240202F09D009488446A0
:101C70006444A3402B435D1EAB41002613439DE704
:101C80000023F7E70023ADE73400BFE780FCFFFF48
:101C900082FCFFFFA2FCFFFF1C2101231B049842D2
:101CA00001D3000C10391B0A984201D3000A0839ED
:101CB0001B09984201D30009043902A2105C4018A4
:101CC0007047C04604030202010101010000000048
:101CD00000000000F8B504000F0016001D0006AB60
:101CE0001A78C94B1B78DBB2022B00D1BBE03ED97E
:101CF000032B00D139E1042B00D09AE09023DB05BF
:101D0000F02109019961902109029961C021BF4B1D
:101D10009961F0210902BE4B9961131F012B00D874
:101D2000BFE1073AFD231A4200D1BAE1B94B5B5D2E
:101D3000DB03B94A525D120313439022D20593622A
:101D4000B64B5B5DDB01B64A525D92011343AF4A6D
:101D50009362B44B5B5DDB03B34A525D9203134362
:101D6000B24A525D52031343A94A9362BDE1012B6B
:101D70005FD19023DB05F0210901996190210902CF
:101D80009961C021A14B9961F0210902A04B996191
:101D9000082A29D8B1235B00D340DB0724D5A44B04
:101DA0009B78DB0752D49B4B1B5DDB039A4A125D89
:101DB000120313439022D2059362984B1B5DDB0103
:101DC000974A125D92011343904A9362954B1B5DB3
:101DD000DB03954A125D92031343944A125D52034A
:101DE00013438B4A93621FE08A4B1B5DDB038A4AD5
:101DF000125D120313439022D2059362874B1B5D41
:101E0000DB01874A125D92011343804A9362854B3E
:101E10001B5DDB03844A125D92031343834A125D08
:101E2000520313437A4A9362802212019023DB0506
:101E30009A62754A13780133DBB213701378DBB200
:101E4000042B02D90122704B1A70F8BD1021704882
:101E500000F044FF0028A6D008216D4800F03EFFA6
:101E60000028E1D19FE79023DB05F021090199616A
:101E7000902109029961C021644B9961F021090206
:101E8000634B99611300083B012B2AD9002A2ED1FC
:101E9000674B9B78DB0726D4802252015C4B9A610A
:101EA0005C4BDB5DDB035C4AD25D12031343902283
:101EB000D2059362594BDB5DDB01594AD25D920139
:101EC0001343524A9362574BDB5DDB03564AD25DA4
:101ED00092031343554AD25D520313434C4A936213
:101EE00030E0002AD4D080214901494B9962082A68
:101EF000D6D8B2235B00D340DB07D1D54C4B9B78BF
:101F0000DB0725D4434BDB5DDB03434AD25D120381
:101F100013439022D2059362404BDB5DDB01404AC4
:101F2000D25D92011343394A93623E4BDB5DDB0382
:101F30003D4AD25D920313433C4AD25D52031343A0
:101F4000334A93628022D2009023DB059A6270E7C5
:101F500010212F4800F0C2FE0028D3D008212C48C1
:101F600000F0BCFE0028EDD1CCE79023DB05F0218A
:101F700009019961902109029961C021234B99615E
:101F8000F0210902224B99611300083B012B0AD969
:101F9000002A0ED1264B9B78DB0706D480229201C3
:101FA0001B4B9A610EE0002AF4D080218901184B66
:101FB000996204231100994303293BD0053AFB237E
:101FC0001A4237D0134B9B5DDB03134A925D120319
:101FD00013439022D2059362104B9B5DDB01104AA4
:101FE000925D92011343094A93620E4B9B5DDB03A2
:101FF0000D4A925D920313430C4A925D1203134300
:10200000034A93623AE0C0460000002000140048F2
:1020100000040048F0490008744A00081C4A0008FF
:10202000484A0008A04A0008CC4A0008F84A0008BC
:102030000C010020364B9B78DB0725D4354B9B5D8C
:10204000DB03354A925D120313439022D20593625B
:10205000324B9B5DDB01324A925D92011343314A60
:102060009362314B9B5DDB03304A925D92031343D5
:102070002F4A925D120313432E4A936280229200EC
:102080009023DB059A62D4E610212A4800F026FE50
:102090000028D3D00821274800F020FE0028EDD1E9
:1020A000CCE71B4B9B78DB0725D41A4B5B5DDB032E
:1020B000194A525D120313439022D2059362174BC3
:1020C0005B5DDB01164A525D92011343154A936230
:1020D000154B5B5DDB03154A525D92031343144AB3
:1020E000525D52031343134A93628022520090239D
:1020F000DB059A629DE610210E4800F0EFFD0028F6
:10210000D3D008210B4800F0E9FD0028EDD1CCE741
:102110000C010020F0490008744A00081C4A00081D
:10212000484A000800140048A04A0008CC4A0008A9
:10213000F84A00080004004810B5040001F00EF948
:10214000FA218900FDF7E0FF00F0A6FA0022210045
:102150000120404200F062FA002010BD10B5064A8E
:10216000136810210B4313600020FFF7E5FF02F016
:10217000ADFA002010BDC04600200240024A13689C
:10218000013313607047C0467C000020014B186883
:102190007047C0467C00002030B583B00190FFF747
:1021A000F5FF0500019C631C5A1E9341E418FFF7DC
:1021B000EDFF401BA042FAD303B030BD70B582B032
:1021C0000400002301930268916803330B40012B44
:1021D0002DD09168204B194231D1936801210B43D6
:1021E00093601E4B18681E49FDF78EFF0190019BFE
:1021F000002B05D0019B013B0193019B002BF9D1E2
:10220000FFF7C4FF0600012523681B681D4221D18A
:10221000FFF7BCFF801B0228F6D9636C1022134322
:102220006364A36C0F3A1343A364012010E01368A6
:102230000020DB070CD4D3681B0409D4C9E7636C06
:10224000102213436364A36C0F3A1343A364012069
:1022500002B070BD0020FBE717000080480000209E
:1022600040420F0070B5041E00D1A4E0436C002B67
:1022700073D0636CDB0600D597E022689368042175
:10228000194000D091E0636C4C4803400630FF30A9
:1022900003436364906803230340012B63D0D36836
:1022A00018208343A0680343D360226813699B000E
:1022B0009B086068034313612268D3684048034069
:1022C000D360A3699A03E369DB031A43206A4503D9
:1022D000636B0E00012B01D080267601E3681A4360
:1022E0002A432369022B45D0236B5B0013433343FE
:1022F0000B43626A012A3FD0A26AC221FF318A429F
:1023000002D0E16A0A4313432168CA681A43CA60CB
:10231000A26B802149058A4202D0013A062A0AD8D6
:102320002068416907229143416121684869A56B92
:102330002A4002434A612268D26822490A409342F5
:1023400029D0636C12229343023A13436364A36C53
:102350000F3A1343A36401202CE08364402283548A
:1023600002F0DEF985E71368DB07A5D4D3681B0408
:1023700095D5A1E70421B7E7002803D180225202B6
:102380001343B9E7626C20210A436264A26C1F39CF
:102390000A43A264B0E70023A364636C032293435F
:1023A000023A13436364002004E0636C1022134379
:1023B0006364012070BD0120FCE7C046FDFEFFFF05
:1023C0001902FEFFE7FF3F8370B504000D00160001
:1023D00003689B6802205B0700D570BD4023E35C67
:1023E000012BFAD001224023E254E369012B04D0EF
:1023F0002000FFF7E3FE0028EFD1636C164A1A4075
:1024000080235B00134363640023A3644022A3542E
:10241000E36B124A9A62E36B114ADA62E36B114A88
:102420001A6323681C221A602268536810210B4328
:1024300053602268D3680F390B43D3602168403161
:1024400033002A00E06B00F093F9226893680421BE
:102450000B4393600020C0E7FEF0FFFF69240008F3
:10246000DB240008E724000810B5436A5A6C5021A9
:1024700011422BD1596C802292000A435A641A6887
:10248000D068C0210901084213D1196A002910D16E
:10249000116809070DD5916849070ED451680C20C1
:1024A000814351605A6C0B490A400431FF310A43A1
:1024B0005A64180001F09EFE10BD5A6C20210A4398
:1024C0005A649A6C1F390A439A64F2E7DB6B1B6B00
:1024D0009847F1E7FEFEFFFF704710B5406AFFF72F
:1024E000FBFF10BD704710B5406A436C4022134398
:1024F0004364836C3C3A13438364FFF7F3FF10BDDE
:1025000030B583B00400002301934033C35C022044
:10251000012B73D001224023E25423689A685207AA
:1025200064D4384A4868904248D0986A01220D68BD
:10253000AA4002439A62A36B80225205934213D0B1
:10254000013B062B10D92268506907230340886895
:10255000984209D050690723984350612268506916
:102560008D682B40034353610B681A00103A00201A
:10257000012A40D8244A1268102B1CD08023DB0388
:102580001343214A13600B680020102B33D11F4BDB
:1025900018681F49FDF7B8FD830018184000019026
:1025A000019B002B2CD0019B013B0193019B002B35
:1025B000F9D100201FE080231B04E1E79A6A012083
:1025C0000D68A84082439A620B681A00103A0020F6
:1025D000012A10D80C4A1268102B05D00D4B13405D
:1025E000094A1360002006E00B4BF8E7636C2022D9
:1025F00013436364012000224023E25403B030BD42
:102600000020F8E7011000000827014048000020E2
:1026100040420F00FFFFBFFFFFFF7FFF70B50028A4
:1026200014DB83089B00154A94466344C026B60019
:102630009D5903242040C000FF2214008440A5437C
:1026400089010A4082402A439A5170BDC0B20F23CB
:102650000340083B9B089B00094A94466344DD699C
:1026600003221040C000FF242200824095438901CC
:102670000C4084402C43DC61E7E7C04600E100E009
:1026800000ED00E01F2318401E3B8340014A136009
:102690007047C04600E100E0431E0A4A0120934211
:1026A0000ED8094A53600948036A1B021B0AC0215D
:1026B00009060B4303620023936007331360002075
:1026C0007047C046FFFFFF0010E000E000ED00E0B3
:1026D000042805D0054A136804218B431360704712
:1026E000024A136804210B431360F8E710E000E08E
:1026F000704710B5FFF7FCFF10BD000070B5041E59
:102700002DD021250223435501680B68154A1A4034
:10271000436880680343E0680343206903436069BA
:102720000343A0690343E069034313430B60236839
:102730000D4A9446634418001421FDF7E5FC80001F
:1027400020640A4BE3630023A362E36223636363B1
:10275000A363012262551F32A354002070BD0120E3
:10276000FCE7C0460FC0FFFFF8FFFDBF00000240BE
:1027700070B52024055D1E3C012D0AD001251E34B4
:1027800005550134045D012C05D000222023C254DC
:102790000224200070BD01352034055500248463D7
:1027A000066835680134A5433560C56B066CB440D6
:1027B0006C60046863604368102B12D003689960F2
:1027C0000368DA60C36A002B10D0026813680E2118
:1027D0000B4313600268136801210B43136000244C
:1027E000D7E703689A600368D960EBE7026813686B
:1027F0000A210B4313600268136806398B43136088
:10280000E8E770B5C36B1A6804682568016C042397
:102810008B401A4212D06B0710D523689B0603D455
:102820002368042293432360C26B0423016C8B4012
:102830005360C36A002B00D0984770BD02238B40C1
:102840001A4218D0AB0716D523689B0606D4236816
:102850000A2293432360093A2123C254C26B022304
:10286000016C8B40536000222023C254836A002BEA
:10287000E3D09847E1E708238B401A42DDD02B07CD
:10288000DBD523680E2293432360C26B012319001A
:10289000046CA140516083632122835400221F33C2
:1028A000C254036B002BC8D09847C6E70C4BDA68BC
:1028B0000023D20605D50B4AD36902210B43D3610D
:1028C0001023074AD268520706D50649CA69012073
:1028D0000243CA6104221343014AD3607047C046D1
:1028E0000020024080000020054B1B6901201B06D0
:1028F00005D5034B034A5A60034A5A6000207047CB
:102900000020024023016745AB89EFCDF8B50400F4
:10291000FFF73CFC0700134E0125F3681D420AD067
:10292000631CFAD0002C1AD0FFF730FCC01B844285
:10293000F3D2032012E00B4BDB689B0602D520226A
:10294000084BDA60074BDB68DB0604D4054BDB6819
:1029500000205B0702D5FFF7A9FF0120F8BD032087
:10296000FCE7C04600200240F0B5DE4657464E4622
:102970004546E0B583B004000E0001929846294B0D
:102980001B7E0220012B06D103B03CBC9046994629
:10299000A246AB46F0BD0122224B1A762248FFF731
:1029A000B5FF002833D1012C35D0022C36D00423BA
:1029B0009B4600251B4B9A46002399461B4C1EE064
:1029C0002022D21A414691400A000199D9400B00B9
:1029D00013439BB252464946D161226901273A43CB
:1029E000226133801048FFF791FF2369BB432361C5
:1029F00000280CD101350236EBB29B4507D92B01DB
:102A0000202252429A18DBD44346D340E1E7002209
:102A1000044B1A76B8E701239B46CAE702239B467C
:102A2000C7E7C0468000002050C3000000200240DD
:102A30000022064BDA61064B1A6904210A431A6127
:102A40001A693C310A431A617047C0468000002071
:102A5000002002400022064BDA61064B1A6902216F
:102A60000A431A6158611A693E310A431A61704774
:102A70008000002000200240F0B5C64600B50600E8
:102A80008846284B1B7E0220012B38D00122254B83
:102A90001A763368012B28D02348FFF737FF03004D
:102AA0000120002B28D1013B424613607468B368B3
:102AB0009B021B199C4233D21C4F02252000FFF7BA
:102AC000C9FF1948FFF722FF3B69AB433B61002870
:102AD00023D18023DB009C466444B3689B02726868
:102AE00094466344A342E9D806E00F48FFF70EFF7F
:102AF00003000120002B05D000220A4B1A7604BCEB
:102B00009046F0BDFFF794FF0748FFF7FFFE074A26
:102B1000136904218B431361EEE743461C60EBE726
:102B20000120E9E78000002050C30000002002409F
:102B3000F0B5DE4657464E464546E0B585B00A68D4
:102B4000002A00D1B6E000250123994602339A46B7
:102B50005C4B9B465C4B98463CE0EC08A400041997
:102B6000276A05332B409B000F229A4097430A693E
:102B70009A4013003B43236236E0836823409C461F
:102B8000CB68BB406246134383604368B3431E0077
:102B90004B681B094A461340AB403343436037E060
:102BA000002466E04C4664E0022462E0544660E0A3
:102BB000019A134368E0019A13436CE0019A1343AE
:102BC00070E0019A13434246D36001350A6813004E
:102BD000EB406FD04E46AE4032400192F5D04B688C
:102BE0001024A343022BB8D003686F005446BC40A6
:102BF000E44323409C464B6852461340BB40624628
:102C0000134303604B6810229343013B012BB4D95B
:102C1000C36823408C68BC401C43C4604B6880225E
:102C200052051342D1D05B469B694A4613435A462C
:102C3000936193694A4613400393039BAB089B003F
:102C4000224A944663449C6857462F40BF000F2693
:102C5000BE40B44326009022D2059042A0D01C4C26
:102C6000A0429FD01B4CA0429ED01B4CA0429DD0A6
:102C70000524BC4034439C6043461B68019AD443FE
:102C80004A68D20394D423404246136053684A688A
:102C9000920390D423404246536093684A68D2021C
:102CA0008CD4234042469360D3684A68920288D409
:102CB000234088E705B03CBC90469946A246AB4607
:102CC000F0BDC04600100240000401400000014079
:102CD0000004004800080048000C00480069084053
:102CE000411E8841C0B27047002A01D181627047FD
:102CF0008161FCE74369594041617047F0B5CE46B8
:102D0000474680B583B004000368DB0739D5B84B6C
:102D10005A680C231340042B2AD0B54B5A680C2355
:102D20001340082B20D06368012B50D0002B55D1C5
:102D3000AF4B1A68AF490A401A601A68AE490A4098
:102D40001A606368002B61D0FFF720FA0700A84ED5
:102D50008025AD0233682B4213D1FFF717FAC01B51
:102D60006428F7D903208EE0A14B5B68DB03DAD53A
:102D70009F4B1B689B0304D501206368002B00D187
:102D800081E023689B0765D5994B5B680C221A424A
:102D900050D0974B5A680C231340082B46D0E36859
:102DA000002B00D17DE0924A136801210B43136090
:102DB000FFF7ECF907008E4E022533681D4267D1FC
:102DC000FFF7E4F9C01B0228F7D903205BE0884A2B
:102DD000116880235B020B431360B2E7052B09D017
:102DE000834B1A6883490A401A601A6882490A406C
:102DF0001A60A6E77E4B19688022D2020A431A6045
:102E00001968802252020A431A609AE7FFF7BEF956
:102E10000700774E8025AD0233682B42B1D0FFF713
:102E2000B5F9C01B6428F7D903202CE0704B5B6810
:102E3000DB03B4D46E4B1B689B0703D50120E3680A
:102E4000012B20D16A490A682369DB00F8208243FC
:102E500013430B6023681B074BD5E369002B34D069
:102E6000634A536A01210B435362FFF78FF907004E
:102E70005F4E0225736A1D423BD1FFF787F9C01BE5
:102E80000228F7D9032003B00CBC90469946F0BD48
:102E900057490A682369DB00F820824313430B601B
:102EA000D8E7534A136801218B431360FFF76EF98B
:102EB00007004F4E022533681D42CBD0FFF766F95D
:102EC000C01B0228F7D90320DDE7494A536A0121D4
:102ED0008B435362FFF75AF90700454E0225736A88
:102EE0001D4206D0FFF752F9C01B0228F7D9032074
:102EF000C9E723685B0700D487E03D4BDB6900220C
:102F00009046DB000BD43A4AD1698020400501434A
:102F1000D161D36903400193019B01239846374B4C
:102F20001B68DB0521D5A368012B34D0002B38D1D9
:102F30002F4B1A6A01218A431A621A6A03318A43A3
:102F40001A62A368002B42D0FFF720F98146284F70
:102F500002262B4D3B6A1E4254D1FFF717F94B4610
:102F6000C01AA842F6D903208DE7244A11688023AD
:102F70005B000B431360FFF709F905001F4F802624
:102F800076003B683342CED1FFF700F9401B64283E
:102F9000F7D9032077E7164A136A01210B4313621E
:102FA000CFE7052B09D0124B1A6A01218A431A6216
:102FB0001A6A03318A431A62C3E70D4B1A6A042165
:102FC0000A431A621A6A03390A431A62B9E7FFF719
:102FD000DDF88146064F0226094D3B6A1E4211D09C
:102FE000FFF7D4F84B46C01AA842F6D903204AE7A7
:102FF00000100240FFFFFEFFFFFFFBFF00700040DC
:10300000881300004346012B1FD02368DB064FD5F1
:103010006369012B1FD005333ED0564B5A6B0421F8
:103020000A435A635A6B03398A435A63FFF7AEF86F
:103030000700504E0225736B1D4239D0FFF7A6F8EA
:10304000C01B0228F7D903201DE74A4AD3694A4921
:103050000B40D361D9E7474B5A6B04210A435A63AB
:103060005A6B03390A435A63FFF790F80700414E41
:103070000225736B1D4206D1FFF788F8C01B02289A
:10308000F7D90320FFE63B494A6BA369DB00F82030
:10309000824313434B630BE0364A536B04218B434B
:1030A0005363516BA369DB00F82081430B435363E7
:1030B000236A0020002B00D1E5E62E4A51680C223D
:1030C0000A40082A53D0022B14D02A4A13682B49ED
:1030D0000B401360FFF75AF80600264D8024A40425
:1030E0002B68234241D0FFF751F8801B0228F7D903
:1030F0000320C8E61F4A136820490B401360FFF7FE
:1031000045F807001B4E8025AD0433682B4206D0DE
:10311000FFF73CF8C01B0228F7D90320B3E6154B94
:10312000DA6A0F218A43E16A0A43DA625968A26ABD
:10313000606A0243124801400A435A6019688022BB
:1031400052040A431A60FFF721F80600094D802453
:10315000A4042B68234206D1FFF718F8801B02282D
:10316000F7D903208FE600208DE600208BE60120B2
:1031700089E6C04600100240FFFFFFEFFFFFFFFEA1
:10318000FFFFC2FF30B589B004AA154B180032C842
:1031900032C2110002680A606A46103313CB13C2B0
:1031A0001B6813600F4B5A680C231340082B13D174
:1031B000910C0733194004A8445C0A49C96A0B40C2
:1031C0006946C95CD30302D40748604305E0074859
:1031D000FCF79AFF604300E0044809B030BDC046E8
:1031E000504900080010024000093D0000127A001A
:1031F000F8B5CE46474680B505000C00514B1A681D
:10320000012313408B420BD24E490B68012293439A
:1032100023430B600B681A400120944200D08CE0DD
:103220002B689B0706D5484A5368F0218B43A96851
:103230000B4353602B68DB0755D56A68012A24D0FD
:10324000022A28D0404B1B6801209B0775D53E49B8
:103250004B680320834313434B60FEF797FF060040
:103260006B68012B1DD0022B2CD0374B98460C27B6
:10327000364B994643465B681F4234D0FEF786FFC3
:10328000801B4845F6D9032057E02F4B1B680120CF
:103290009B03DCD451E02C4B1B6801209B01D6D44E
:1032A0004BE0294B98460C27284B994643465B68D0
:1032B0003B40042B17D0FEF769FF801B4845F5D92A
:1032C00003203AE0204B98460C27204B9946434672
:1032D0005B683B40082B06D0FEF758FF801B484533
:1032E000F5D9032029E0174B1A68012313409C42AB
:1032F0000AD214490B680122934323430B600B68E5
:103300001A400120944218D12B685B0706D50E4A5B
:1033100053680F490B40E9680B435360FFF732FFD6
:10332000094B5B681B061B0F0A4AD35CD8400A4B4B
:1033300018600020FEF700FF00200CBC9046994664
:10334000F8BDC04600200240001002408813000073
:10335000FFF8FFFF6C4B000848000020014B186885
:103360007047C04648000020F0B5CE46474680B5BD
:1033700083B004000368DB0336D53F4BDB690025CF
:10338000DB000AD43C4AD169802040050143D16169
:10339000D36903400193019B0135384B1B68DB0562
:1033A0003CD5354B1B6AC0229200134013D0616894
:1033B0000A4093420FD0304B186A314A02401E6ACD
:1033C0008021490231431962196A2E4E3140196237
:1033D0001A62C30739D4284A136A29490B40616825
:1033E0000B431362012D42D02368DB0706D5224A26
:1033F000136B03218B43A1680B43136300202368E5
:103400009B0606D51C4A136B10218B43E1680B43C6
:10341000136303B00CBC90469946F0BD174A11687F
:1034200080235B000B431360FEF7B0FE8046134F12
:10343000802676003B683342B3D1FEF7A7FE4346B1
:10344000C01A6428F6D90320E3E7FEF79FFE814601
:10345000094F02260C4B98463B6A1E42BBD1FEF731
:1034600095FE4B46C01A4045F6D90320D1E7D369F3
:1034700006490B40D361B7E70010024000700040DE
:10348000FFFCFFFFFFFFFEFF88130000FFFFFFEFC1
:10349000F8B504000268D368A0218B43D360FEF71F
:1034A00075FE07002025FA26B6002368DB681D425A
:1034B00006D1FEF76BFEC01BB042F6D9032000E038
:1034C0000020F8BDF8B504000368DA680020520651
:1034D00000D5F8BD01225242DA60FEF757FE070020
:1034E0004025FA26B6002368DB681D4206D1FEF7A8
:1034F0004DFEC01BB042F6D90320EAE70020E8E702
:1035000070B5041E57D0437F002B3DD00223637754
:103510002368CA225A622368773A5A622000FFF76A
:10352000D1FF051E34D12268936824490B40936073
:1035300022689168636820690343606903430B4311
:1035400093602368E2681A6122681169A3681B040A
:103550000B4313612268D36880218B43D3602368B7
:103560009B689B061BD52268136C15490B4013649E
:103570002268136CA1690B4313642368FF225A620B
:1035800001236377280070BD037701F00DF9BDE7D3
:103590002368FF225A62042363770125F2E72000A3
:1035A000FFF776FF0028DED02368FF225A6204234B
:1035B00063770125E6E70125E4E7C046BFFF8FFFFB
:1035C000FFFFFBFF092809D9002301330A38C0B2E5
:1035D0000928FAD81B011843C0B270470023F9E745
:1035E000F0B5C64600B504000E00037F0227012B8C
:1035F00049D00123037701334377002A47D1036879
:103600009B685B0601D40023CB703078FFF7DAFFAC
:1036100080467078FFF7D6FF0700B078FFF7D2FF3B
:10362000F5782D0405434346180405433F023D4306
:103630002368CA225A622368773A5A622000FFF749
:1036400041FF071E34D12368254805401D602268CC
:10365000936824490B40936022689168F36830694D
:1036600003430B4393602268D36880218B43D3606C
:1036700023689B689B0624D52368FF225A62012396
:10368000637700232377380004BC9046F0BD0368BD
:103690009B685B0601D40023CB7035782D047078CD
:1036A00000020543B0780543F07800040543BFE706
:1036B0002368FF225A6204236377002323770127BC
:1036C000E1E72000FFF7E4FE0028D5D02368FF22C1
:1036D0005A6204236377002323770127D3E7C04688
:1036E0007F7F7F00FFFFFBFFF0B5C64600B50400FB
:1036F0000F00037F0226012B3ED001230377013305
:103700004377002A53D14B78DA0603D5102293432E
:103710000A334B70F878FFF755FF80467878FFF74B
:1037200051FF0600B878FFF74DFF3D786D03054364
:10373000434618040543360235432368CA225A62B9
:103740002368773A5A622000FFF7BCFE061E17D1A5
:1037500023681C4805405D602268D36880218B4344
:10376000D36023689B689B0613D52368FF225A62A7
:103770000123637700232377300004BC9046F0BD1B
:103780002368FF225A6204236377002323770126EC
:10379000F2E72000FFF77CFE0028E6D02368FF2236
:1037A0005A6204236377002323770126E4E7CD7868
:1037B0002D044878000205438878054308784003C3
:1037C0000543BAE73FFFFF000200000983001B1812
:1037D0005B000F2010401818C0B27047F8B50C00FD
:1037E00003689B6A4B6003681B695B045B0C8B601E
:1037F00003681B680E490B401E0C3F2030402070B0
:103800001D0A7F273D4065701F40A7704021314051
:10381000E170002A0AD1FFF7D7FF20702800FFF7D8
:10382000D3FF60703800FFF7CFFFA0700020F8BD15
:103830007F7F7F0070B50C0003685B680D490B400B
:10384000180CE070DE04F60E66703F251D40A57072
:103850001B045B0F2370002A0AD1FFF7B5FFE0704D
:103860003000FFF7B1FF60702800FFF7ADFFA070D8
:10387000002070BD3FFFFF000368DA6801210A43A2
:10388000DA60026813680B431360002070477047CA
:1038900070477047704710B5040003681A699207B3
:1038A0000FD5DA6892070CD5032252421A61012320
:1038B000037703689B699B0763D0FFF7E9FF002349
:1038C000237723681A69520712D5DA6852070FD591
:1038D000052252421A610223237723689A69C02382
:1038E0009B001A4253D02000FFF7D2FF002323771A
:1038F00023681A69120710D5DA6812070DD5092254
:1039000052421A61042323772368DB699B0745D061
:103910002000FFF7BDFF0023237723681A69D20632
:1039200012D5DA68D2060FD5112252421A61082345
:1039300023772368DA69C0239B001A4235D0200020
:10394000FFF7A6FF0023237723681A69D20702D561
:10395000DA68D20730D423681A69120602D5DA6809
:10396000120630D423681A69520602D5DA68520664
:1039700030D423681A69920602D5DA68920630D4E8
:1039800010BDFFF784FF2000FFF783FF97E72000BB
:10399000FFF77DFF2000FFF77CFFA7E72000FFF780
:1039A00076FF2000FFF775FFB5E72000FFF76FFFF8
:1039B0002000FFF76EFFC5E7022252421A61200085
:1039C00000F096FBC7E7812252421A61200000F006
:1039D000B6F8C7E7412252421A612000FFF75AFFAA
:1039E000C7E7212252421A61200000F0A7F8C7E77A
:1039F00003683E4A904222D03D4A904238D03D4A28
:103A000090423AD03C4A904253D03C4A904242D0F5
:103A10003B4A90425BD0802293434A691343036040
:103A20008B68C3620B6883621FE0334B98421AD0E5
:103A3000324B984217D0324B984214D015E0702286
:103A400093434A6813432F4A1340CA6813438022A2
:103A500093434A69134303608B68C3620B688362B4
:103A6000224B9842E1D10B69036301234361704704
:103A7000702293434A681343E5E7224A1340CA6819
:103A80001343802293434A69134303608B68C362E4
:103A90000B688362E9E71B4A1340CA68134380221C
:103AA00093434A69134303608B68C3620B68836264
:103AB000D9E7144A1340CA681343802293434A69E2
:103AC000134303608B68C3620B688362CBE70D4AC4
:103AD0001340CA681343802293434A691343036027
:103AE0008B68C3620B688362BDE7C046002C01404F
:103AF000000400400020004000400140004401401C
:103B000000480140FFFCFFFF70B5041E14D03D23A8
:103B1000C35C002B0AD03D2502236355211D20687C
:103B2000FFF766FF01236355002070BD00223C3380
:103B3000C25400F049FEEEE70120F6E770477047F7
:103B40000C4B984212D803889BB20B4A93420FD178
:103B5000084A09490430904205D803889BB28B4239
:103B6000F8D0002000E0012080B270470120FBE780
:103B70000020F9E7FFF30008FFFF000030B583B035
:103B8000050000226B46DA80264B1B889BB2264A32
:103B9000128892B2002A2DD1244A944663445A1EB8
:103BA000934198B26B469A1DD880DB889BB2AB20BC
:103BB000AB2B32D0130014881D4A94466444A402EF
:103BC000188880021B4B9C466044844227D223689D
:103BD000013305D00434A0421ED923680133F9D142
:103BE0000A00002321000120FEF7BEFE00280BD0B2
:103BF00080B212E0AB20002BD4D10C4B9C46624427
:103C00005042504180B2CDE7A11C2A000023012080
:103C1000FEF7AAFE80B200E0802003B030BD802015
:103C2000FBE7C04600F0000800F400081211FFFF97
:103C30003C000200FFF3000810B584B0002303939A
:103C400000931248019001330293FFF779FF002897
:103C500005D103A96846FEF70FFF041E07D1002215
:103C600000230A490120FEF77FFE041E02D0200037
:103C700004B010BD06480190FFF762FF0028F6D19E
:103C800003A96846FEF7F8FE0400F0E700F000081C
:103C900000F4000810B582B000226B46DA801C4B9D
:103CA0001B889BB21B4A128892B2002B02D0002ABA
:103CB00027D0AB236A46D380D3889BB2AB22AB2BF1
:103CC0001CD06B46DC8806331B889B02124A944644
:103CD0006344A402114A944664449C4215D21A8853
:103CE00092B2904206D0043B9C420CD21A8892B207
:103CF0008242F8D1023B1B880B800022100002B0E8
:103D000010BD0123D6E70122F8E70122F6E7C046FD
:103D100000F0000800F40008FEF3000802F00008BC
:103D2000F0B5D6464F464646C0B586B0002205924D
:103D30008F4B1F88BFB28F490C88A4B202920393A5
:103D4000012304938C4B9F4244D08C4B9F420FD055
:103D5000002F00D1AAE0FFF76FFF0024002800D059
:103D600084B2200006B01CBC90469946A246F0BD25
:103D7000002C09D0804B9C4214D0FFF75DFF00243B
:103D80000028EED084B2ECE77948FFF7D9FE051E93
:103D9000E7D105A902A8FEF76FFE2C000028E0D0AD
:103DA00084B2DEE77248FFF7CBFE002805D105A9F3
:103DB00002A8FEF761FE00280AD1002200236D4907
:103DC0000120FEF7D1FD00240028CAD084B2C8E744
:103DD00084B2C6E7002C44D1694F00250126764203
:103DE000684B984605E02EB20BE001350237102DE6
:103DF00018D043461B889BB22A000197388883421B
:103E0000F1D0B242F1D06049FFF744FF0128ECD075
:103E10005D4B1988019B1888FFF7B0FE0028E4D09D
:103E200004009EE70022002351490120FEF79CFD7B
:103E3000002801D084B294E7002302934D480390F8
:103E400001330493FFF77CFE051E00D089E705A926
:103E500002A8FEF711FE2C00002800D181E784B2F1
:103E60007FE7464B9C4207D0FFF7E6FE0024002880
:103E700000D176E784B274E73E480390FFF760FE16
:103E8000002805D105A902A8FEF7F6FD00280BD1F0
:103E90000022002336490120FEF766FD0024002899
:103EA00000D15EE784B25CE784B25AE7002C0AD006
:103EB000324B9C420ED0324E002501235B42994684
:103EC000324B9A461EE0FFF7B7FE002800D148E7C4
:103ED00084B246E727480390FFF732FE041E01D064
:103EE0003C003EE705A902A8FEF7C6FD002800D168
:103EF00037E784B235E72BB299460BE0013502363D
:103F0000102D16D053461B889BB22A0034003088EF
:103F10008342F0D04A45F1D01B49FFF7BBFE012890
:103F2000ECD0194B19882088FFF728FE041EE5D035
:103F300017E7002200230F490120FEF715FD002896
:103F400001D084B20DE700230293094803900133A6
:103F50000493FFF7F5FD041E01D03C0001E705A91D
:103F600002A8FEF789FD002800D1FAE684B2F8E63F
:103F700000F0000800F40008EEEE0000FFFF000073
:103F80002800002006F000086C00002006F400085D
:103F9000F0B5D64600B586B004000D00FFF7EEFD83
:103FA000802803D006B004BC9246F0BD00230293E3
:103FB0002A4B1B889BB22A4A128892B2002B07D048
:103FC0002B30002AEED1264B9A46244B019303E076
:103FD000224B9A46224B0193224A00230199012049
:103FE000FEF7C2FC002801D080B2DBE729002000E8
:103FF000FFF7C4FD0028D5D11B4E3500203502E067
:104000000236AE420FD030888442F9D01749FFF70C
:1040100041FE0128F4D0154B19883088FFF7AEFD1A
:104020000028EDD0BEE700230393534604930123F9
:10403000059302A903A8FEF71FFD002801D080B256
:10404000B0E70022002301990120FEF78DFC030058
:104050000020002BA6D098B2A4E7C04600F00008CC
:1040600000F40008EEEE0000280000206C000020A4
:1040700070B5104C65780A212800FCF745F8C0B2ED
:104080000D4B18700A212800FCF7C4F8C9B20B4B7D
:104090001970A4780A212000FCF736F8C0B2084B4A
:1040A00018700A212000FCF7B5F8C9B2054B197049
:1040B00070BDC0460C010020DC0100202001002062
:1040C000C40000204401002010B5064C002206491F
:1040D0002000FFF783FB002204492000FFF7AAFB22
:1040E00010BDC046240100200C010020C0000020AB
:1040F00010B582B00268384B1B689A4201D002B0FA
:1041000010BD364B1B78DBB20A2BF8D89B00344A23
:10411000D3589F46334B1878C0B2334B1978C9B285
:10412000324B1A78D2B2324B1B78DBB200240094A7
:10413000FDF7D0FDE3E7012300930C330C220B21A4
:104140000A20FDF7C7FDDAE7052300931F33262277
:1041500010210F20FDF7BEFDD1E7032300930933A3
:104160000B220A210920FDF7B5FDC8E704230093BF
:104170000C330F220E210D20FDF7ACFDBFE7052308
:1041800000930F33132212211120FDF7A3FDB6E790
:10419000062300931233172216211520FDF79AFDEE
:1041A000ADE707230093143324221A211920FDF7C9
:1041B00091FDA4E70823009318331E221D211C2023
:1041C000FDF788FD9BE7092300931F332722262153
:1041D0002520FDF77FFD92E7C800002004000020A5
:1041E000244B0008DC01002020010020C400002036
:1041F00044010020F8B5394B1C880134A4B21C805E
:10420000374A384BD1691868844661440D001960FB
:10421000354B10681A68944660441860334B9C42D2
:104220005AD92100FBF7FAFFFCF704FA061C21001B
:104230002800FBF7F3FF07002D4B1888FDF70EFC55
:104240002C4A2D4BFDF78AF904000D00301CFDF7B8
:1042500047FC02000B0020002900FDF77FF9040055
:104260000D003803C01BFDF7F9FB02000B00200016
:104270002900FCF73FFDFDF785FC204B1860FDF79A
:104280002FFC1F4A1F4BFCF735FDFDF77BFC041C80
:104290001D4B18601D49FCF7FDF8002814D0201CA8
:1042A000FDF71EFC04000D00194A1A4BFCF7CCF870
:1042B000002809D00F4A184B20002900FCF70AFA01
:1042C000FDF760FC104B18600122044B1A8000239C
:1042D000044A1360044A1360F8BDC046020000207F
:1042E000A000002008010020E0010020E7030000FA
:1042F000BAF7FF1F6666666666660A4074000020AD
:10430000AAF1D24D6210A83F700000200000A04129
:104310009A9999999999B93F6666E63F30B595B0F3
:104320001A230893193B0B930D9310220C920E92B3
:104330000F930225109500241194C0235B03129360
:10434000139408A8FEF7DAFC072304930595069456
:104350000794012104A8FEF74BFF80235B02009322
:1043600080239B0001936846FEF7FEFFFEF7F6FFF1
:10437000FA218900FBF7C8FEFEF78EF90420FEF74C
:10438000A7F90022002101204042FEF747F915B0AD
:1043900030BD0000F0B5DE4657464E464546E0B516
:1043A0008BB0FDF7DBFEFFF7B9FFFEF79DFAFFF7D5
:1043B000B7FCB44F7A69802189020A437A617B692C
:1043C0000B400293029B7A698021C9020A437A61F9
:1043D0007B690B400393039B7A698021C9030A43DD
:1043E0007A617B690B400493049B0022A649A7488D
:1043F000FEF77AFC9F231B029B46002219009020A7
:10440000C005FEF771FC0022C021A148FEF76CFC3C
:1044100005AC07239A460593012666600025A56032
:10442000E56021009948FEF783FBF4231B02059306
:10443000112399466360A560E56021009348FEF76B
:1044400077FB5B4605934B466360A560E560210002
:104450009020C005FEF76CFBC02305934B466360BC
:10446000A560E56021008A48FEF762FB38230593CA
:104470006560A66021008548FEF75AFB7B693343DF
:104480007B617B6933400193019B0022002109205D
:10449000FEF7C4F80920FEF7F5F87E4F7E4B3B602F
:1044A00080231B067B600823BB60FD603E617B614F
:1044B000BD61FD613E627D62C223FF33BB62FD626E
:1044C0003E637E633800FDF7CDFE059580235B01DA
:1044D00063605346A36021003800FEF711F805968B
:1044E00021003800FEF70CF802239A4605932100BC
:1044F0003800FEF705F80323059321003800FDF787
:10450000FFFF0423059321003800FDF7F9FF052381
:10451000059321003800FDF7F3FF102305932100D8
:104520003800FDF7EDFF4B46059321003800FDF7FD
:10453000E7FF5A4B98465A4B4246136055607F231B
:1045400093608033D3601561556195614046FEF7F5
:10455000D7FF25706570A570E560256101222100F7
:104560004046FFF73DF86B461E705E709E70DD7032
:10457000012269464046FFF7B7F84A4C4A4B236090
:1045800053466360A560494BE36080239B00236131
:104590006561813BFF3BA3612000FFF7B5FA444E04
:1045A000444D688A4449FFF775FB718AE889434B9B
:1045B00099464B1C4A461380FFF7EAFC288A4B4673
:1045C00019884B1C4A461380FFF7E2FC688A4B4669
:1045D00019884B1C4A461380FFF7DAFC31000E3174
:1045E000E889FFF757FB31001031288AFFF752FBAB
:1045F000688A3149FFF74EFB2000FFF73DF908229A
:104600002F493800FDF7E0FE204C2E4E37003500D4
:1046100009E0FA208000FDF7BFFD08212000FEF729
:104620005DFB002828D0FFF74FFDFFF721FD20217B
:104630002000FEF753FB00280DD133780133DBB2A5
:1046400033703378DBB20A2B01D901233B70FA2097
:104650008000FDF7A1FD10212000FEF73FFB0028A0
:10466000DBD12B78013BDBB22B702B78002BD0D128
:104670000A22144B1A70CCE78021C9002000FEF7F3
:1046800039FBD0E70010024007F4000000040048A6
:104690000014004890010020002401402401002063
:1046A00000280040C800002000480140FFFF000033
:1046B00008000020280000201A00002078000020B8
:1046C000A0000020040000207047000000B583B067
:1046D000124B996901221143996199690A4000922C
:1046E000009ADA69802149050A43DA61DB690B40E7
:1046F0000193019B0022002105204042FDF78EFF1F
:104700000022002102204042FDF788FF0022002104
:1047100001204042FDF782FF03B000BD00100240BF
:1047200070B586B004001B4B02689A4201D006B0F7
:1047300070BD194B9A698026B60032439A619B6915
:1047400033400093009B3F2301933C3B02930025A1
:10475000039501A99020C005FEF7EAF90F48104B18
:104760000360456085608023C360066180231B0170
:10477000436120238361C561FDF7C0FF002803D199
:10478000064BE3635C62D2E76E210648FFF79CFFAD
:10479000F6E7C04600240140001002404C01002012
:1047A00008000240504B0008054B02689A4200D0B6
:1047B0007047044A116A80231B020B431362F7E718
:1047C000002800400010024000B583B00C4B026886
:1047D0009A4201D003B000BD0A4A91698020C0020C
:1047E00001439161936903400193019B00220021E1
:1047F0001620FDF713FF1620FDF744FFEAE7C04639
:1048000000480140001002407047FEE770477047C3
:1048100010B5FDF7B3FCFDF76CFF10BD10B50248F5
:10482000FDF7EFFF10BDC0464C01002010B5024857
:10483000FFF731F810BDC046C8000020114B1A68C0
:1048400001210A431A605A680F4802405A601A68E8
:104850000E4802401A601A680D4802401A605A68F1
:104860000C4802405A60DA6A0F208243DA621A6BFF
:10487000094802401A635A6B8A435A6300229A60BD
:104880007047C046001002400CB8FF08FFFFF6FE5C
:10489000FFFFFBFFFFFFC0FFECFEFFFF0D4885465B
:1048A0000D480E490E4A002302E0D458C450043388
:1048B000C4188C42F9D30B4A0B4C002301E013605F
:1048C0000432A242FBD3FFF7B9FF00F011F8FFF763
:1048D00061FDFEE700200020000000204C000020C9
:1048E000844B000850000020E4010020FEE7000097
:1048F00070B500260C4D0D4C641BA410A64209D1C6
:10490000002600F019F80A4D0A4C641BA410A642B8
:1049100005D170BDB300EB5898470136EEE7B30000
:10492000EB5898470136F2E77C4B00087C4B0008B7
:104930007C4B0008804B0008F8B5C046F8BC08BCAA
:104940009E467047F8B5C046F8BC08BC9E46704706
:1049500002030405060708090A0B0C0D0E0F1010C0
:104960000102030405060708090A0B0C0D0E0F10BF
:10497000EC0E0008CE0E0008880E0008A60D0008F8
:10498000880E0008C00E0008880E0008A60D00085A
:10499000CE0E0008CE0E0008C00E0008A60D0008BE
:1049A0009E0D00089E0D00089E0D000804110008D1
:1049B0004C1700080C1600080C1600080816000812
:1049C0002417000824170008161700080816000806
:1049D00024170008161700082417000808160008F6
:1049E0002C1700082C1700082C1700083019000895
:1049F00001000101000101010101010001000101AB
:104A000001000000000001000001010001000000A1
:104A1000000000010001000001000000010101018F
:104A2000010000010101010000010000000100017E
:104A3000010001000001010000000100010001006F
:104A4000000100000100000001010001010101015D
:104A5000010101010001000001010001000001014C
:104A6000010001000100010100010100000101003D
:104A7000010000000100010100010100010100012D
:104A8000010101000100000101010000010000001E
:104A9000010101010100010100000000010000000E
:104AA00001000100000001000100010101010101FC
:104AB00001010100010101010101000100010101E9
:104AC00000000000000101010100000001000000E1
:104AD00001010100010101010100010101010100C9
:104AE00001010100000101000101010001010100BB
:104AF00000010101000000000000010101010100AE
:104B0000010101010001010100010000010000019B
:104B1000010101010101000000010101010001008A
:104B200001000000FE400008144100083641000862
:104B3000484100085A4100086C4100087E410008C5
:104B400090410008A2410008B4410008C641000895
:104B50002E2E5C5372635C73746D333266307878DA
:104B60005F68616C5F6D73702E6300000000000071
:0C4B700000000000010203040607080911
:044B7C00E900000844
:044B8000C100000868
:104B84000100010001000000010002000300040014
:104B9400050006000700080009000A000B000000D9
:104BA40000000000000000000010011002100310BB
:104BB4000410051006100810091010100000000061
:0C4BC400000000000000000000127A0059
:040000050800489D0A
:00000001FF
