:020000040800F2
:1000000000200020192C0008852B0008872B0008F1
:1000100000000000000000000000000000000000E0
:10002000000000000000000000000000892B000814
:1000300000000000000000008B2B00088D2B000842
:10004000692C000800000000692C0008692C0008D9
:10005000692C0008692C0008692C0008692C00082C
:1000600000000000992B0008692C0008692C00088A
:10007000692C0008692C0008692C000800000000A9
:10008000692C0008692C000800000000692C000899
:10009000692C0008692C0008A92B0008692C0008AD
:1000A000692C0008692C0008692C0008692C0008DC
:1000B000692C0008000000000000000000000000A3
:1000C00010B5064C2378002B07D1054B002B02D02E
:1000D000044800E000BF0123237010BD4800002049
:1000E00000000000B42C0008044B10B5002B03D016
:1000F0000349044800E000BF10BDC04600000000F6
:100100004C000020B42C0008002243088B4274D31A
:1001100003098B425FD3030A8B4244D3030B8B4208
:1001200028D3030C8B420DD3FF22090212BA030C11
:100130008B4202D31212090265D0030B8B4219D3F2
:1001400000E0090AC30B8B4201D3CB03C01A524112
:10015000830B8B4201D38B03C01A5241430B8B425A
:1001600001D34B03C01A5241030B8B4201D30B0343
:10017000C01A5241C30A8B4201D3CB02C01A52416A
:10018000830A8B4201D38B02C01A5241430A8B422D
:1001900001D34B02C01A5241030A8B4201D30B0216
:1001A000C01A5241CDD2C3098B4201D3CB01C01A30
:1001B000524183098B4201D38B01C01A524143093A
:1001C0008B4201D34B01C01A524103098B4201D328
:1001D0000B01C01A5241C3088B4201D3CB00C01A95
:1001E000524183088B4201D38B00C01A524143080D
:1001F0008B4201D34B00C01A5241411A00D2014632
:10020000524110467047FFE701B5002000F006F8A4
:1002100002BDC0460029F7D076E770477047C04658
:10022000F8B507000E0015001C0006AB1A78CC4B81
:100230001B78DBB2022B00D1BEE040D9032B00D1EA
:100240003FE1042B00D09DE09023DB05F021090164
:100250009961902109029961C021C24B9961F021F5
:100260000902C14B9961131FDBB2012B00D8C4E115
:10027000072A00D1C1E1092A00D1BEE1BB4B1B5DB9
:10028000DB03BB4A125D120313439022D205936233
:10029000B84B1B5DDB01B84A125D92011343B14AB2
:1002A0009362B64B1B5DDB03B54A125D92031343A9
:1002B000B44A125D52031343AB4A9362C1E1012B6E
:1002C00060D19023DB05F021090199619021090299
:1002D0009961C021A34B9961F0210902A24B996158
:1002E000012A26D0052A24D0062A22D0082A20D086
:1002F0009E4B1B5CDB039E4A125C1203134390224D
:10030000D20593629B4B1B5CDB019B4A125C920102
:100310001343944A9362994B1B5CDB03984A125C2B
:1003200092031343974A125C520313438E4A93621B
:1003300023E0954B9B78DB0731D48C4BDB5DDB03F3
:100340008B4AD25D120313439022D2059362894BEC
:10035000DB5DDB01884AD25D92011343814A9362DF
:10036000864BDB5DDB03864AD25D92031343854AED
:10037000D25D520313437C4A936280221201902380
:10038000DB059A62764A13780133DBB21370137877
:10039000DBB2042B02D90122714B1A70F8BD102177
:1003A000714800F05FFF0028C7D008216E4800F0B8
:1003B00059FF0028E1D1C0E79023DB05F0210901B6
:1003C0009961902109029961C021664B9961F021E0
:1003D0000902654B99611300083BDBB2012B01D97F
:1003E000002A0ED1002A08D1674B9B78DB0704D482
:1003F000802149015C4B996103E0802149015A4BFE
:100400009962022A26D0052A24D0062A22D0082A58
:1004100020D0564B9B5DDB03554A925D120313437C
:100420009022D2059362534B9B5DDB01524A925D51
:10043000920113434B4A9362504B9B5DDB03504A3E
:10044000925D920313434F4A925D52031343464A0F
:10045000936223E04C4B9B78DB0725D4434B9B5D99
:10046000DB03434A925D120313439022D205936249
:10047000404B9B5DDB01404A925D92011343394A38
:1004800093623E4B9B5DDB033D4A925D92031343B7
:100490003C4A925D52031343334A93628022D20056
:1004A0009023DB059A626DE710212F4800F0DAFEF9
:1004B0000028D3D008212C4800F0D4FE0028EDD12C
:1004C000CCE79023DB05F021090199619021090215
:1004D0009961C021234B9961F0210902224B996156
:1004E0001300083BDBB2012B01D9002A0ED1002AF0
:1004F00008D1254B9B78DB0704D4802189011A4B56
:10050000996103E080218901174B9962032A3DD04C
:10051000052A3BD0072A39D0092A37D0134B5B5D17
:10052000DB03134A525D120313439022D2059362F8
:10053000104B5B5DDB01104A525D92011343094A87
:1005400093620E4B5B5DDB030D4A525D92031343D6
:100550000C4A525D12031343034A93623AE0C046C9
:10056000000000200014004800040048EC2C0008A3
:10057000702D0008182D0008442D00089C2D00083F
:10058000C82D0008F42D0008F8000020364B9B7899
:10059000DB0725D4354B5B5DDB03354A525D120327
:1005A00013439022D2059362324B5B5DDB01324AEA
:1005B000525D92011343314A9362314B5B5DDB0321
:1005C000304A525D920313432F4A525D1203134384
:1005D0002E4A9362802292009023DB059A62D1E634
:1005E00010212A4800F03EFE0028D3D008212748D9
:1005F00000F038FE0028EDD1CCE71B4B9B78DB07E1
:1006000025D41A4B1B5DDB03194A125D12031343F9
:100610009022D2059362174B1B5DDB01164A125DD7
:1006200092011343154A9362154B1B5DDB03154A78
:10063000125D92031343144A125D52031343134A8B
:100640009362802252009023DB059A629AE6102181
:100650000E4800F007FE0028D3D008210B4800F018
:1006600001FE0028EDD1CCE7F8000020EC2C0008BA
:10067000702D0008182D0008442D000800140048B3
:100680009C2D0008C82D0008F42D00080004004827
:1006900010B5040001F0FEF8FA218900FFF734FDDF
:1006A00000F0D0FA002221000120404200F08EFA32
:1006B000002010BD10B5064A136810210B431360CB
:1006C0000020FFF7E5FF02F0BFF9002010BDC04693
:1006D00000200240024A1368013313607047C0468D
:1006E00068000020014B18687047C0466800002071
:1006F00030B583B00190FFF7F5FF0500019C631C46
:1007000000D00134FFF7EEFF401BA042FAD303B044
:1007100030BD000030B583B00400002301930268AF
:10072000916803330B40012B11D00023002B42D1E1
:100730009168224B194216D1936801210B439360B3
:100740001F4B18681F49FFF7DFFC019018E0136882
:10075000DB0704D4D3681B0403D40023E6E701239A
:10076000E4E70123E2E7636C102213436364A36CA4
:100770000F3A1343A36401201EE0019B013B019348
:10078000019B002BF9D1FFF7ADFF050023681B6823
:10079000DB070ED4FFF7A6FF401B0228F6D9636CD7
:1007A000102213436364A36C0F3A1343A364012024
:1007B00002E0002000E0002003B030BD1700008000
:1007C0004400002040420F0070B5041E00D1B9E083
:1007D000436C002B00D180E0636CDB0600D5ABE0FE
:1007E0002268936804210B4000D0A5E0616C564854
:1007F00001400630FF3001436164906803210140ED
:10080000012970D0002100290CD1D1681820814322
:10081000A0680143D16021680A699200920860686B
:1008200002430A612168CA6848480240CA60A26956
:100830009203E169C9030A43206A41030A43616BD9
:1008400001295CD0802149010A43E1680A432169FA
:10085000022956D01343226B52001343626A012AC5
:1008600051D0A26AC221FF318A4202D0E16A0A4312
:1008700013432168CA681A43CA60A26B80214905E4
:100880008A420DD0012A0BD0022A09D0032A07D0B0
:10089000042A05D0052A03D0062A01D0072A0AD146
:1008A0002068416907229143416120684169A56B35
:1008B0002A400A4342612268D26825490A4093428D
:1008C00030D0636C12229343023A13436364A36CE7
:1008D0000F3A1343A364012033E08364402283541E
:1008E00002F0DCF878E71168C90704D4D16809047C
:1008F00003D4002187E7012185E7012183E719005F
:10090000A2E70423A6E7002803D180225202134362
:10091000A7E7626C20210A436264A26C1F390A4374
:10092000A2649EE70023A364636C03229343023A0C
:1009300013436364002004E0636C10221343636478
:10094000012070BD0120FCE7FDFEFFFF1902FEFF44
:10095000E7FF3F83F8B504000E00170003689B68AB
:100960005B0702D502252800F8BD4023C35C012B9C
:100970003AD001224023C254C369012B32D0FFF781
:10098000C9FE0500002DEED1636C184A1A40802381
:100990005B00134363640023A3644022A354E36B0E
:1009A000134A9A62E36B134ADA62E36B124A1A63E0
:1009B00023681C221A602268536810210B4353607D
:1009C0002268D3680F390B43D360216840313B0064
:1009D0003200E06B00F0BCF92268936804210B43FD
:1009E0009360C0E70025CDE70225BCE7FEF0FFFFDE
:1009F000010A0008730A00087F0A00087047000017
:100A000010B5436A5A6C502111422BD1596C802287
:100A100092000A435A641A68D068C021090108424A
:100A200013D1196A002910D1116809070DD59168F1
:100A300049070ED451680C20814351605A6C0B4910
:100A40000A400431FF310A435A641800FFF7D6FF09
:100A500010BD5A6C20210A435A649A6C1F390A430C
:100A60009A64F2E7DB6B1B6B9847F1E7FEFEFFFF32
:100A7000704710B5406AFFF7FBFF10BD704710B517
:100A8000406A436C402213434364836C3C3A1343F3
:100A90008364FFF7F3FF10BD30B583B0040000237B
:100AA00001934033C35C012B00D181E0012240233C
:100AB000C25403689A68520770D43E4A486890420C
:100AC00053D09A6A01200D68A84002439A62A36B32
:100AD0008022520593421ED0012B1CD0022B1AD02B
:100AE000032B18D0042B16D0052B14D0062B12D0B4
:100AF000072B10D02268506907230340886898426A
:100B000009D05069072398435061206842698D6875
:100B10002B40134343610B681A00103A012A01D994
:100B2000002040E0244A1268102B09D08023DB0308
:100B30001343214A13600B68102B04D0002032E0CD
:100B400080231B04F4E71D4B18681D49FFF7DCFAEE
:100B5000830018184300019302E0019B013B0193BD
:100B6000019B002BF9D100201DE09A6A01200D683D
:100B7000A84082439A620B681A00103A012A01D9F0
:100B8000002010E00C4A1268102B05D00D4B1340CA
:100B9000094A1360002006E00B4BF8E7436C202263
:100BA00013434364012000224023E25403B030BDCC
:100BB0000220FBE70110000008270140440000204C
:100BC00040420F00FFFFBFFFFFFF7FFF70B500280F
:100BD00011DB8308144DC0339B005C590322104085
:100BE000C000FC3216008640B44389010A408240AE
:100BF00022435A5170BDC0B20F230340083B9B08EB
:100C000006339B00094A944663445D680322104002
:100C1000C000FF2422008240954389010C4084409B
:100C20002C435C60E6E7C04600E100E000ED00E038
:100C30001F2318401E3B8340014A13607047C04683
:100C400000E100E001380A4B98420FD8094A506091
:100C50000948036A1B021B0AC02109060B430362F1
:100C60000023936007331360002070470120FCE7E6
:100C7000FFFFFF0010E000E000ED00E0042805D0D9
:100C8000054A136804218B4313607047024A1368B6
:100C900004210B431360F8E710E000E0704710B543
:100CA000FFF7FCFF10BD70B5C56B0124066CB440A6
:100CB0006C60046863604368102B04D0036899601B
:100CC0000368DA6070BD03689A600368D960F9E769
:100CD00010B504000368064A9446634418001421C2
:100CE000FFF712FA80002064024BE36310BDC04698
:100CF000F8FFFDBF0000024070B5041E24D021257E
:100D00000223435501680B68104A1A404368806803
:100D10000343E06803432069034360690343A06918
:100D20000343E069034313430B602000FFF7D0FF48
:100D30000023A362E36223636363A363012262551A
:100D40001F32A354002070BD0120FCE70FC0FFFF3D
:100D500070B504002020205C012832D0012520201D
:100D600025540130205C012804D000222023E254C5
:100D7000022070BD0135203025540020A063256875
:100D800028680126B04328602000FFF78CFFE36A43
:100D9000002B0BD0226813680E210B4313602268CE
:100DA000136801210B4313600020E2E722681368F7
:100DB0000A210B4313602268136806398B431360C2
:100DC000EDE70220D5E770B5C36B1A6804682568A3
:100DD000016C04238B40134212D06B0710D523689B
:100DE0009B0603D42368042293432360C26B04232D
:100DF000016C8B405360C36A002B00D0984770BDD4
:100E000002238B40134218D0AB0716D523689B06EC
:100E100006D423680A2293432360093A2123C2544B
:100E2000C26B0223016C8B40536000222023C2540A
:100E3000836A002BE3D09847E1E708238B401342F5
:100E4000DDD02B07DBD523680E2293432360C26BD2
:100E500001231900046CA140516083632122835453
:100E600000221F33C254036B002BC8D09847C6E73B
:100E700010B50022044BDA61044A136901242343AC
:100E80001361018010BDC0467000002000200240A8
:100E90000C4BDB68DB0613D50B4AD36902210B43ED
:100EA000D3611023074AD268520706D50649CA699A
:100EB00001200243CA6104221343024AD3607047EF
:100EC0000023EFE70020024070000020064B1B6962
:100ED0001B0606D5044B054A5A60054A5A60002095
:100EE00070470120FCE7C04600200240230167450F
:100EF000AB89EFCD70B50400FFF7F4FB0500134B91
:100F0000DB68DB070AD5631CF9D0002C19D0FFF78A
:100F1000E9FB401B8442F2D2032011E00B4BDB685B
:100F20009B0602D52022094BDA60084BDB68DB0602
:100F300003D4064BDB685B0705D5FFF7A9FF01204B
:100F400070BD0320FCE70020FAE7C0460020024005
:100F5000F0B583B004000E0001921F00204B1B7EF1
:100F6000012B02D1022003B0F0BD01221C4B1A76E6
:100F70001C48FFF7BFFF00282DD1012C06D0022C02
:100F800002D0042500241BE00225FBE70125F9E738
:100F90002022D21A390091400A000199D940114308
:100FA00089B28019FFF764FF0E48FFF7A3FF0E4ACE
:100FB000136901218B43136100280CD10134E4B281
:100FC000AC4208D260002301202252429A18DFD49A
:100FD0003900D140E4E70022014B1A76C3E7C0464E
:100FE0007000002050C30000002002400022064B89
:100FF000DA61064B1A6904210A431A611A693C3105
:101000000A431A617047C046700000200020024069
:101010000022064BDA61064B1A6902210A431A6163
:1010200058611A693E310A431A6170477000002006
:101030000020024070B505000E00244B1B7E012BE2
:1010400041D00122214B1A760368012B22D020487F
:10105000FFF750FF002831D101235B4233606C68F9
:101060000130AB689B026A68944663449C4226D276
:101070002000FFF7CDFF1648FFF73CFF154A136924
:1010800002218B431361002816D18023DB009C468C
:101090006444E6E70E48FFF72DFF002801D0012049
:1010A0000DE0FFF7A3FF0A48FFF724FF094A136981
:1010B00004218B43136102E0346000E00120002230
:1010C000024B1A7670BD0220FCE7C046700000207B
:1010D00050C3000000200240F0B5C64600B582B003
:1010E00000237EE0DF080837BF003E5807251D407B
:1010F000AD000F24AC40A6430C69AC40250035433D
:101100003D507EE0856864462540CE68BE4035434C
:10111000856045682C004546AC434D682E09012585
:1011200035409D402C434460C46865462C408D6822
:10113000BD402C43C4604C68E40051D5434DAE69BA
:1011400001242643AE61AD692C400194019C9C08AA
:10115000A51CAD003E4EAE5903251D40AD000F2726
:10116000AF40BE439027FF05B84265D0394FB84223
:1011700064D0394FB84263D0384FB8425AD00527AF
:10118000AF403D0035430234A400314EA551344CEC
:101190002568D44326002E404F68FF0301D5154330
:1011A0002E002F4D2E606D682E0026404F68BF0325
:1011B00001D515432E002A4D6E60AD682E002640E5
:1011C0004F68FF0201D515432E00254DAE60ED6836
:1011D0002C404E68B60201D52A431400204AD46040
:1011E00001330A681400DC402CD001249C40A04646
:1011F0002240F5D04D68022D00D173E7122D00D1A9
:1012000070E706685F0003252C00BC40E443A44659
:1012100026404C682540BD40354305604D686E1E34
:10122000012E00D86EE7112D00D16BE7122D00D0F2
:101230007AE767E70327A3E70027A1E701279FE7EE
:1012400002279DE702B004BC9046F0BD00100240AA
:10125000000001400004004800080048000C00485D
:101260000004014003690B4201D1002070470120B6
:10127000FCE7002A01D1816270478161FCE7436984
:10128000594041617047000070B582B004000368A6
:10129000DB0736D5C14B5A680C231340042B28D0EA
:1012A000BE4B5A680C231340082B1ED06368012BD9
:1012B0004BD0002B50D1B94B1A68B9490A401A607B
:1012C0001A68B8490A401A606368002B5CD0FFF7BF
:1012D00009FA0500B14B1B689B0312D4FFF702FA11
:1012E000401B6428F6D90320EAE1AC4B5B68DB03C2
:1012F000DCD5AA4B1B689B0303D56368002B00D188
:10130000DBE123689B0762D5A44B5B680C221A4281
:101310004CD0A24B5A680C231340082B42D0E368F0
:10132000002B76D09D4A136801210B431360FFF711
:10133000D9F90500994B1B689B0761D4FFF7D2F9D7
:10134000401B0228F6D90320BAE1944A1168802391
:101350005B020B431360B7E7052B09D08F4B1A686C
:101360008F490A401A601A688E490A401A60ABE732
:101370008A4B19688022D2020A431A6019688022B7
:1013800052020A431A609FE7FFF7ACF90500834B4E
:101390001B689B03B5D5FFF7A5F9401B6428F6D958
:1013A00003208DE17D4B5B68DB03B8D47B4B1B686E
:1013B0009B0704D5E368012B01D0012080E1774928
:1013C0000B68F82293432269D20013430B60236811
:1013D0001B0744D5E369002B2ED0704A536A0121C4
:1013E0000B435362FFF77EF905006C4B5B6A9B076A
:1013F00035D4FFF777F9401B0228F6D903205FE1C7
:1014000066490B68F82293432269D20013430B60AC
:10141000DDE7624A136801218B431360FFF762F92D
:1014200005005E4B1B689B07D1D5FFF75BF9401B9E
:101430000228F6D9032043E1584A536A01218B431D
:101440005362FFF74FF90500544B5B6A9B0706D5C3
:10145000FFF748F9401B0228F6D9032030E1236842
:101460005B0775D54D4BDB69DB002ED44B4AD16948
:10147000802040050143D161D36903400193019B62
:101480000125494B1B68DB0521D5A368012B32D010
:10149000002B36D1414B1A6A01218A431A621A6A1B
:1014A00003318A431A62A368002B40D0FFF71AF970
:1014B00006003A4B1B6A9B0748D4FFF713F9801BC1
:1014C0003A4B9842F5D90320FAE00025D9E7364A8D
:1014D000116880235B000B431360FFF703F90600DC
:1014E000314B1B68DB05D0D4FFF7FCF8801B642868
:1014F000F6D90320E4E0294A136A01210B43136261
:10150000D1E7052B09D0254B1A6A01218A431A62BB
:101510001A6A03318A431A62C5E7204B1A6A04210A
:101520000A431A621A6A03390A431A62BBE7FFF7D1
:10153000D9F80600194B1B6A9B0707D5FFF7D2F8AD
:10154000801B1A4B9842F5D90320B9E0012D1ED01B
:101550002368DB065AD56369012B2BD0053349D0AC
:101560000E4B5A6B04210A435A635A6B03398A4360
:101570005A63FFF7B7F80500084B5B6B9B0745D52F
:10158000FFF7B0F8401B0228F6D9032098E0034A81
:10159000D36907490B40D361DAE7C0460010024027
:1015A000FFFFFEFFFFFFFBFF0070004088130000FD
:1015B000FFFFFFEF444B5A6B04210A435A635A6BF7
:1015C00003390A435A63FFF78DF805003E4B5B6B06
:1015D0009B0706D4FFF786F8401B0228F6D90320A4
:1015E0006EE039494B6BF8229343A269D200134352
:1015F0004B630BE0344A536B04218B435363536BAF
:10160000F4318B43A169C9000B435363236A002B58
:1016100055D02D4A51680C220A40082A52D0022B7C
:1016200012D0294A136829490B401360FFF75AF872
:101630000400254B1B689B013DD5FFF753F8001BA9
:101640000228F6D903203BE01F4A13681F490B40CC
:101650001360FFF747F805001B4B1B689B0106D57D
:10166000FFF740F8401B0228F6D9032028E0164B6C
:10167000DA6A0F218A43E16A0A43DA625A68144936
:101680000A40A16A606A01430A435A6019688022CD
:1016900052040A431A60FFF725F804000A4B1B683E
:1016A0009B0106D4FFF71EF8001B0228F6D9032081
:1016B00006E0002004E0002002E0012000E000201D
:1016C00002B070BD0120FBE700100240FFFFFFFEEB
:1016D000FFFFC2FF30B589B004AA154B180032C80D
:1016E00032C2110002680A606A46103313CB13C27B
:1016F0001B6813600F4B5A680C231340082B13D13F
:10170000910C0733194004A8445C0A49C96A0B408C
:101710006946C95CD30302D40748604305E0074823
:10172000FEF7F2FC604300E0044809B030BDC0465B
:10173000CC2C00080010024000093D0000127A0085
:1017400070B505000C004D4B1A68012313408B4205
:101750000BD24A490B680122934323430B600B6869
:101760001A40944201D0012085E02B689B0706D5E2
:10177000434A5368F0218B43A9680B4353602B689D
:10178000DB074CD56B68012B21D0022B25D03C4ABE
:101790001268920700D46FE039494A6803208243F7
:1017A00013434B60FEF79EFF06006B68012B1AD0B7
:1017B000022B26D0324B5B680C221A422FD0FEF748
:1017C00091FF801B2F4B9842F4D9032053E02C4A01
:1017D00012689203E0D401204DE0294A1268920178
:1017E000DAD4012047E0264B5A680C231340042B1F
:1017F00015D0FEF777FF801B224B9842F3D90320C8
:1018000039E01F4B5A680C231340082B07D0FEF712
:1018100069FF801B1B4B9842F3D903202BE0174B29
:101820001A68012313409C420BD214490B68012211
:10183000934323430B600B681A40944201D001206C
:1018400019E02B685B0706D50D4A53680E490B401B
:10185000E9680B435360FFF73DFF094B5A681209D3
:101860000F231340094AD35CD840094B186000206D
:10187000FEF70EFF002070BD0120FCE700200240B3
:101880000010024088130000FFF8FFFF682E0008D8
:1018900044000020014B18687047C04644000020F7
:1018A00070B582B004000368DB0335D53C4BDB69BF
:1018B000DB0048D43A4AD169802040050143D16118
:1018C000D36903400193019B0125364B1B68DB055F
:1018D0003BD5334B1B6AC0229200134013D0616882
:1018E0000A4093420FD02E4B186A2F4A02401E6ABC
:1018F0008021490231431962196A2C4E3140196224
:101900001A62C30735D4264A136A27490B40616817
:101910000B431362012D3BD02368DB0706D5204A19
:10192000136B03218B43A1680B43136323689B064E
:1019300033D51B4A136B10218B43E1680B431363B0
:10194000002002B070BD0025BFE7164A1168802351
:101950005B000B431360FEF7C5FE0600114B1B68CE
:10196000DB05B6D4FEF7BEFE801B6428F6D9032043
:10197000E7E7FEF7B7FE0600094B1B6A9B07C2D4D8
:10198000FEF7B0FE801B0A4B9842F5D90320D8E73A
:10199000D36908490B40D361BEE70020D1E7C046B8
:1019A0000010024000700040FFFCFFFFFFFFFEFF41
:1019B00088130000FFFFFFEF70B504000268D368D2
:1019C000A0218B43D360FEF78DFE05002368DB6802
:1019D0009B0608D4FEF786FE401BFA239B00984224
:1019E000F4D9032000E0002070BD70B50400036846
:1019F000DA68520601D5002070BD01225242DA6039
:101A0000FEF770FE05002368DB685B0608D4FEF76E
:101A100069FE401BFA239B009842F4D90320EBE7B0
:101A20000020E9E770B5041E57D0437F002B3DD05E
:101A3000022363772368CA225A622368773A5A627C
:101A40002000FFF7D2FF051E34D122689368244995
:101A50000B40936021688A6863682069034360696A
:101A6000034313438B602368E2681A6121680B69A2
:101A7000A268120413430B612268D36880218B4350
:101A8000D36023689B689B061BD52268136C15499D
:101A90000B4013642268136CA1690B431364236821
:101AA000FF225A6201236377280070BD037701F09B
:101AB00039F8BDE72368FF225A62042363770125C2
:101AC000F2E72000FFF778FF0028DED02368FF222E
:101AD0005A62042363770125E6E70125E4E7C0465F
:101AE000BFFF8FFFFFFFFBFF002302E001330A3837
:101AF000C0B20928FAD81B01DBB2184370470000B6
:101B0000F8B504000E00037F012B6FD0012303778B
:101B100001334377002A41D103689B685B0601D4F7
:101B20000023CB703078FFF7DFFF05047078FFF7F4
:101B3000DBFF00020543B078FFF7D6FF0543F078DE
:101B4000000405432368CA225A622368773A5A621E
:101B50002000FFF74AFF071E31D1236825480540C2
:101B60001D602268936824490B40936021688B684C
:101B7000F2683069024313438B602268D368802186
:101B80008B43D36023689B689B0621D52368FF2283
:101B90005A62012363770023237728E003689B6858
:101BA0005B0601D40023CB7035782D0470780002D9
:101BB0000543B0780543F07800040543C2E7236885
:101BC000FF225A62042363770023237701270EE064
:101BD0002000FFF7F1FE0028D8D02368FF225A62C8
:101BE0000423637700232377012700E002273800CE
:101BF000F8BDC0467F7F7F00FFFFFBFF70B504008C
:101C00000E00037F012B60D001230377013343775C
:101C1000002A06D14B78D90603D510218B430A330D
:101C20007370002A2FD1F078FFF75EFF05047078FB
:101C3000FFF75AFF00020543B078FFF755FF054351
:101C40003078400305432368CA225A622368773AF2
:101C50005A622000FFF7C9FE061E1FD123681C48E8
:101C600005405D602268D36880218B43D360236880
:101C70009B689B061BD52368FF225A62012363776A
:101C80000023237722E07378B078F5782D041B02C7
:101C90001D430543307840030543D4E72368FF2202
:101CA0005A62042363770023237701260EE0200085
:101CB000FFF782FE0028DED02368FF225A62042349
:101CC000637700232377012600E00226300070BDF1
:101CD0003FFFFF00020993009B185A000F23184092
:101CE0008018C0B270470000F8B50C0003689B6A0A
:101CF0004B6003681B695B045B0C8B6003681B68AB
:101D00000E490B401E0C3F20304020701D0A7F27DB
:101D10003D4065701F40A77040213140E170002AAE
:101D20000AD1FFF7D7FF20702800FFF7D3FF6070BC
:101D30003800FFF7CFFFA0700020F8BD7F7F7F0045
:101D400070B50C0003685B680E490B40180CE0701E
:101D5000190A1F260E4066703F251D40A5705B0BBB
:101D600007210B402370002A0AD1FFF7B3FFE07070
:101D70003000FFF7AFFF60702800FFF7ABFFA070E7
:101D8000002070BD3FFFFF000368DA6801210A43AD
:101D9000DA60026813680B431360002070477047D5
:101DA00070477047704710B5040003681A699207BE
:101DB0000FD5DA6892070CD5032252421A6101232B
:101DC000037703689B699B0763D0FFF7E9FF002354
:101DD000237723681A69520712D5DA6852070FD59C
:101DE000052252421A610223237723689A69C0238D
:101DF0009B001A4253D02000FFF7D2FF0023237725
:101E000023681A69120710D5DA6812070DD509225E
:101E100052421A61042323772368DB699B0745D06C
:101E20002000FFF7BDFF0023237723681A69D2063D
:101E300012D5DA68D2060FD5112252421A61082350
:101E400023772368DA69C0239B001A4235D020002B
:101E5000FFF7A6FF0023237723681A69D20702D56C
:101E6000DA68D20730D423681A69120602D5DA6814
:101E7000120630D423681A69520602D5DA6852066F
:101E800030D423681A69920602D5DA68920630D4F3
:101E900010BDFFF784FF2000FFF783FF97E72000C6
:101EA000FFF77DFF2000FFF77CFFA7E72000FFF78B
:101EB00076FF2000FFF775FFB5E72000FFF76FFF03
:101EC0002000FFF76EFFC5E7022252421A61200090
:101ED00000F068FCC7E7812252421A61200000F03E
:101EE00074F8C7E7412252421A612000FFF75AFFF7
:101EF000C7E7212252421A61200000F065F8C7E7C7
:101F000003681D4A904232D01C4A90422FD01A4A90
:101F100090420ED0194A90420BD0194A904208D0F4
:101F2000184A904205D0184A904202D0174A90426F
:101F300003D1174A1340CA681343802293434A6966
:101F4000134303608B68C3620B6883620A4B984239
:101F500008D00C4B984205D00B4B984202D00B4B4B
:101F6000984201D10B6903630123436170477022DA
:101F700093434A681343CAE7002C01400004004021
:101F80000020004000400140004401400048014062
:101F9000FFFCFFFF70B5041E14D03D23C35C002B73
:101FA0000AD03D2502236355211D2068FFF7A8FFB5
:101FB00001236355002070BD00223C33C25400F061
:101FC000C1FDEEE70120F6E770477047074B9842E6
:101FD00006D803889BB2064A934204D10430F5E741
:101FE000012080B270470020FBE7C046FFF30008E5
:101FF000FFFF0000134B1B889BB2134A128892B25A
:10200000002813D0012819D1002A06D10F498B428C
:1020100001D0012313E0130011E0002B01D0AB230A
:102020000DE00A498A420AD1013308E0002B06D0AC
:10203000002A01D0AB2302E0012300E000231800B6
:102040007047C04600F0000800F40008EEEE000003
:1020500070B582B005000E006B469C1D00232380E6
:102060000120FFF7C7FF208023889BB2AB2B26D02F
:102070006B46DC88134A94466444A402DA88013231
:102080009202114B9C466244944216D2236801335B
:1020900001D00434F8E73200002321000120FEF7CC
:1020A00057FF002801D080B20AE0A11C2A000023BB
:1020B0000120FEF74DFF80B202E0802000E0AB205F
:1020C00002B070BD3C000200FFEF000810B584B004
:1020D0000023039300931248019001330293FFF70A
:1020E00075FF002805D103A96846FEF7A3FF041E6B
:1020F00007D1002200230A490120FEF729FF041E10
:1021000002D0200004B010BD06480190FFF75EFF2A
:102110000028F6D103A96846FEF78CFF0400F0E71B
:1021200000F0000800F4000870B582B005000C0053
:102130006B469E1D002333800020FFF75BFF30803D
:1021400033889BB2AB2B1CD06B46D98806330E4A22
:102150009446614489021B8801339B020B4A9446D2
:1021600063448A1C93420AD91A8892B2AA4201D0C7
:10217000043BF6E7023B1B882380002002E001209D
:1021800000E0AB2002B070BD3C000200FEEF000892
:10219000F0B585B000220392914B1E88B6B29149EA
:1021A0000D88ADB200920193012302938E4B9E42A3
:1021B00040D08E4B9E420BD0002E00D1A1E0FFF705
:1021C00085FF002800D108E185B2280005B0F0BDE8
:1021D000002D09D0844B9D4214D0FFF777FF0028D3
:1021E00000D1F2E085B2F0E77D48FFF7EFFE041E74
:1021F000EBD103A96846FEF71DFF002800D1E0E0FF
:1022000085B2E2E77648FFF7E1FE002805D103A991
:102210006846FEF70FFF00280AD10022002371490B
:102220000120FEF795FE002800D1CCE085B2CCE776
:1022300085B2CAE7002D2AD06C4B9D4249D0FFF7EA
:1022400045FF002800D1C6E085B2BEE727B20CE00A
:102250000134A4B20F2C1ED8654B1B889BB22600FC
:1022600062006449505A8342F0D0BE42F0D06249C5
:10227000FFF75AFF0128EBD076005E4BF05A5E4B19
:102280001988FFF7E5FE0028E2D005009DE72C0045
:1022900001277F42DEE70022002351490120FEF79B
:1022A00057FE002801D085B28FE7002300934D48E8
:1022B000019001330293FFF789FE041E00D084E7EA
:1022C00003A96846FEF7B6FE002800D17FE085B27C
:1022D0007BE744480190FFF779FE002805D103A968
:1022E0006846FEF7A7FE002809D1002200233C49DA
:1022F0000120FEF72DFE00286BD085B265E785B280
:1023000063E7002D06D0394B9D420AD034000127E7
:102310007F421BE0FFF7DAFE002800D155E785B2C7
:1023200053E730480190FFF751FE051E01D03500FC
:102330004BE703A96846FEF77DFE002800D144E77D
:1023400085B242E727B20CE00134A4B20F2C19D8B1
:102350002A4B1B889BB2250062002649505A8342B3
:10236000F0D0BD42F0D02449FFF7DEFE0128EBD0CB
:102370006D00204BE85A204B1988FFF769FE051EB7
:10238000E2D022E70022002316490120FEF7E0FDFB
:10239000002801D085B218E700230093104801906F
:1023A00001330293FFF712FE051E01D035000CE742
:1023B00003A96846FEF73EFE002800D105E785B276
:1023C00003E7250001E70025FFE60025FDE62500DF
:1023D000FBE60025F9E60025F7E60025F5E6C04610
:1023E00000F0000800F40008EEEE0000FFFF00001F
:1023F00006F00008240000206400002006F4000815
:10240000F0B5C64600B584B007000D000023039365
:102410000020FFF7EFFD012814D0002805D0AB24E1
:10242000200004B004BC9046F0BD254B9846254ED4
:10243000254A002331000120FEF78AFD002805D03F
:1024400084B2EDE71F4B98461D4EF1E72900380096
:10245000FFF7FEFD041E02D0E2E70134A4B20F2C08
:1024600014D86300194A985A8742F6D01849FFF7E2
:102470005BFE0128F1D06500144BE85A144B198813
:10248000FFF7E6FD0028E8D00400C9E70023009329
:10249000434601930123029303A96846FEF7CAFD50
:1024A000002801D084B2BBE70022002331000120C4
:1024B000FEF74EFD002801D184B2B1E784B2AFE748
:1024C00000F0000800F40008EEEE000024000020F8
:1024D0006400002070B504000D00FFF7B9FD8028EE
:1024E00000D070BD29002000FFF78AFFF9E7000047
:1024F000F0B589B02F4B59698020800201435961A2
:102500005A6902400092009A59698020C002014332
:1025100059615A6902400192019A5A698021C9039E
:102520000A435A615B690B400293029B00222249D5
:102530002248FEF79EFE9F252D02002229009020B2
:10254000C005FEF796FE0022C0211D48FEF791FE51
:10255000072303930126049600240594069403A9F7
:102560001648FEF7B9FDF4231B02039311270497C5
:102570000594069403A91148FEF7AEFD0395049750
:102580000594069403A99020C005FEF7A5FDC0237D
:10259000039304970594069403A90948FEF79CFD4C
:1025A000382303930494059603A90448FEF794FD89
:1025B00009B0F0BD0010024007F40000000400481C
:1025C0000014004800B583B0094A5169012319433A
:1025D0005161526913400193019B0022002109209F
:1025E000FEF7F4FA0920FEF723FB03B000BDC04656
:1025F0000010024070B584B0254C264B23600025A6
:102600006560A560E5600126266108236361A56118
:10261000E56126626562C223FF33A362E562266339
:1026200065632000FEF7D0F8019580235B010293DB
:102630000735039501A92000FEF72EFA019601A99E
:102640002000FEF729FA0223019301A92000FEF7DA
:1026500023FA0323019301A92000FEF71DFA0423A6
:10266000019301A92000FEF717FA0523019301A9A0
:102670002000FEF711FA0623019301A92000FEF7BE
:102680000BFA019501A92000FEF706FA04B070BD0F
:10269000980100200024014030B587B0124C134B44
:1026A0002360002565607F23A3608033E36025619C
:1026B0006561A5612000FFF7B5F901A90D704D70A6
:1026C0008D70CD600D6101222000FFF719FA012302
:1026D0006A46137053709370D570012269462000CA
:1026E000FFF78CFA07B030BD100100200028004031
:1026F00010B50948094B036002234360002383603F
:10270000074AC26080229200026143618033836184
:10271000FFF740FC10BDC046B80000200048014053
:10272000FFFF000070B5104C65780A212800FDF706
:10273000EBFCC0B20D4B18700A212800FDF76AFDB2
:10274000C9B20B4B1970A4780A212000FDF7DCFCFC
:10275000C0B2084B18700A212000FDF75BFDC9B21A
:10276000054B197070BDC046F8000020E401002040
:102770000C010020B40000203001002010B5064CF0
:10278000002206492000FFF7AFFA0022044920008A
:10279000FFF7D6FA10BDC04610010020F800002057
:1027A000B000002010B582B00268384B1B689A4216
:1027B00001D002B010BD364B1B78DBB20A2BF8D823
:1027C0009B00344AD3589F46334B1878C0B2334BE2
:1027D0001978C9B2324B1A78D2B2324B1B78DBB2BD
:1027E00000240094FDF71CFDE3E7012300930C3364
:1027F0000C220B210A20FDF713FDDAE705230093D5
:102800001F33262210210F20FDF70AFDD1E70323F5
:10281000009309330B220A210920FDF701FDC8E7C7
:10282000042300930C330F220E210D20FDF7F8FC3A
:10283000BFE7052300930F33132212211120FDF768
:10284000EFFCB6E70623009312331722162115205A
:10285000FDF7E6FCADE707230093143324221A2189
:102860001920FDF7DDFCA4E70823009318331E228E
:102870001D211C20FDF7D4FC9BE7092300931F3387
:10288000272226212520FDF7CBFC92E7B800002067
:1028900001000020202E0008E40100200C0100208F
:1028A000B40000203001002030B595B01A23089301
:1028B000193B0B930D9310220C920E920F9302254D
:1028C000109500241194C0235B031293139408A85D
:1028D000FEF7DAFC0723049305950694079401217B
:1028E00004A8FEF72DFF80235B02009380239B004A
:1028F00001936846FEF7D4FFFEF7CCFFFA2189006A
:10290000FDF702FCFEF79EF90420FEF7B7F900225E
:10291000002101204042FEF759F915B030BD0000FA
:10292000F8B5FDF7C7FEFFF7BFFFFEF7CFFAFFF7D9
:102930002FFCFFF7DDFDFFF745FEFFF75BFEFFF71E
:10294000ABFEFFF7D5FE374D2E001236364C608AAF
:102950003100FFF7E9FB698AE089344F4B1C3B806B
:10296000FFF7B8FD208A39884B1C3B80FFF7B2FD8A
:10297000608A39884B1C3B80FFF7ACFD29000E3183
:10298000E089FFF7D1FB29001031208AFFF7CCFB4B
:10299000608A3100FFF7C8FB2548FFF7F5F90822E8
:1029A00024492548FDF7D6FF09E0FA208000FDF70D
:1029B0009FFE08212148FEF755FC00282BD0FFF789
:1029C000DDFEFFF7AFFE20211C48FEF74BFC002880
:1029D0000FD11B4A13780133DBB213701378DBB2CB
:1029E0000A2B02D90122164B1A70FA208000FDF73B
:1029F0007FFE10211148FEF735FC0028D9D1104A7E
:102A00001378013BDBB213701378002BCDD10A226F
:102A10000B4B1A70C9E78021C9000848FEF72FFC4C
:102A2000CDE7C046040000202400002066000020FE
:102A3000B800002034010020980100200004004864
:102A4000010000207047000000B583B0124B996967
:102A500001221143996199690A400092009ADA694A
:102A6000802149050A43DA61DB690B400193019B30
:102A70000022002105204042FEF7A8F80022002194
:102A800002204042FEF7A2F800220021012040422D
:102A9000FEF79CF803B000BD0010024070B586B090
:102AA00004001B4B02689A4201D006B070BD194B5E
:102AB0009A698026B60032439A619B69334000933D
:102AC000009BFF230193FC3B02930025039501A982
:102AD0009020C005FEF700FB0F48104B03604560D7
:102AE00085608023C360066180231B01436120232E
:102AF0008361C561FEF700F9002803D1064BE3634B
:102B00005C62D2E770210648FFF79CFFF6E7C046FB
:102B1000002401400010024054010020080002403F
:102B20004C2E00080268054B9A4200D07047044AB8
:102B3000116A80231B020B431362F7E70028004051
:102B40000010024000B583B002680C4B9A4201D0DD
:102B500003B000BD0A4A91698020C002014391611F
:102B6000936903400193019B002200211620FEF788
:102B70002DF81620FEF75CF8EAE7C0460048014051
:102B8000001002407047FEE77047704710B5FDF730
:102B9000A1FDFEF784F810BD10B50248FEF713F949
:102BA00010BDC0465401002010B50248FFF7FBF8E5
:102BB00010BDC046B8000020114B1A6801210A431D
:102BC0001A605A680F4802405A601A680E4802405C
:102BD0001A601A680D4802401A605A680C48024090
:102BE0005A60DA6A0F208243DA621A6B094802409F
:102BF0001A635A6B8A435A6300229A607047C04630
:102C0000001002400CB8FF08FFFFF6FEFFFFFBFFBD
:102C1000FFFFC0FFECFEFFFF0D4885460D480E4943
:102C20000E4A002302E0D458C4500433C4188C4226
:102C3000F9D30B4A0B4C002301E013600432A2428B
:102C4000FBD3FFF7B9FF00F011F8FFF769FEFEE7CD
:102C5000002000200000002048000020802E0008F6
:102C600048000020E8010020FEE7000070B50026C3
:102C70000C4D0D4C641BA410A64209D1002600F097
:102C800019F80A4D0A4C641BA410A64205D170BD68
:102C9000B300EB5898470136EEE7B300EB5898477E
:102CA0000136F2E7782E0008782E0008782E00080A
:102CB0007C2E0008F8B5C046F8BC08BC9E4670479C
:0C2CC000F8B5C046F8BC08BC9E46704742
:102CCC0002030405060708090A0B0C0D0E0F101061
:102CDC000102030405060708090A0B0C0D0E0F1060
:102CEC0001000101000101010101010001000101CC
:102CFC0001000000000001000001010001000000C3
:102D0C0000000001000100000100000001010101B0
:102D1C00010000010101010000010000000100019F
:102D2C000100010000010100000001000100010090
:102D3C00000100000100000001010001010101017E
:102D4C00010101010001000001010001000001016D
:102D5C00010001000100010100010100000101005E
:102D6C00010000000100010100010100010100014E
:102D7C00010101000100000101010000010000003F
:102D8C00010101010100010100000000010000002F
:102D9C00010001000000010001000101010101011D
:102DAC00010101000101010101010001000101010A
:102DBC000000000000010101010000000100000002
:102DCC0001010100010101010100010101010100EA
:102DDC0001010100000101000101010001010100DC
:102DEC0000010101000000000000010101010100CF
:102DFC0001010101000101010001000001000001BD
:102E0C0001010101010100000001010101000100AB
:102E1C0001000000B2270008C8270008EA270008B4
:102E2C00FC2700080E28000820280008322800087B
:102E3C004428000856280008682800087A2800084A
:102E4C002E2E5C5372635C73746D333266307878FB
:102E5C005F68616C5F6D73702E6300000000000092
:0C2E6C0000000000010203040607080932
:042E7800E900000865
:042E7C00C100000889
:102E8000010100000100020003000400050006002B
:102E90000700080009000A000B0000000000000005
:102EA00000000000001001100210031004100510B3
:102EB00006100810091010100000000000000000AB
:082EC0000000000000127A007E
:0400000508002C19AA
:00000001FF
